:020000040800F2
:10000000A8EA0020F5010008DB3A00082D330008BB
:10001000D93A00087B030008295C000800000000B2
:100020000000000000000000000000005B3C000831
:10003000A512000800000000593C00085D3C0008C3
:100040000F0200080F0200080F0200080F0200084C
:100050000F0200080F0200080F0200080F0200083C
:100060000F0200080F0200080F0200080F0200082C
:10007000C90F000861100008F91000080F020008FD
:10008000911100080F0200080F0200080F0200087B
:100090000F0200080F0200080F0200080F020008FC
:1000A0000F020008693D00080F0200080F02000857
:1000B0000F0200080F0200080F0200080F020008DC
:1000C0000F0200080F0200080F0200080F020008CC
:1000D0000F0200080F0200080F0200080F020008BC
:1000E0000F0200080F0200080F0200080F020008AC
:1000F0000F020008753D00080F0200080F020008FB
:100100000F0200080F0200080F0200080F0200088B
:100110000F0200080F0200080F0200080F0200087B
:100120000F0200080F0200080F0200080F0200086B
:100130000F020008000000000000000000000000A6
:100140000000000000000000000000000F02000896
:100150000F0200080F0200080F0200080F0200083B
:100160000F0200080F0200080F0200080F0200082B
:100170000F020008DD3A0008000000000000000047
:100180000F0200080F020008D54000080F02000807
:100190000F0200080F020008000000000F02000814
:1001A0000000000000000000000000000F02000836
:1001B0000F0200080F02000800000000000000000D
:1001C000000000000000000000000000000000002F
:1001D0000000000000000000000000000F02000806
:1001E000DFF80CD000F08CF800480047015D0008F3
:1001F000A8EA00200648804706480047FEE7FEE7D9
:10020000FEE7FEE7FEE7FEE7FEE7FEE7FEE7FEE7C6
:10021000153D0008E10100082DE9F05F05460020CA
:1002200092469B4688460646814640241BE0284667
:1002300041464746224600F053F853465A46C01AF4
:10024000914110D311461846224600F03AF82D1A73
:1002500067EB01084F4622460120002100F031F8EB
:1002600017EB00094E41201EA4F10104DFDC4846D3
:1002700031462A464346BDE8F09F40EA01039B070A
:1002800003D009E008C9121F08C0042AFAD203E00B
:1002900011F8013B00F8013B521EF9D27047D2B26F
:1002A00001E000F8012B491EFBD270470022F6E75F
:1002B00010B513460A4604461946FFF7F0FF2046DC
:1002C00010BD202A04DB203A00FA02F1002070471A
:1002D0009140C2F1200320FA03F319439040704784
:1002E000202A04DB203A21FA02F00021704721FA8B
:1002F00002F3D040C2F120029140084319467047F2
:10030000064C074D06E0E06840F0010394E8070062
:1003100098471034AC42F6D3FFF766FF106A000826
:10032000306A000870B58C1810F8015B15F00703EF
:1003300001D110F8013B2A1106D110F8012B03E07E
:1003400010F8016B01F8016B5B1EF9D12B0705D486
:100350000023521E0DD401F8013BFAE710F8013BCF
:10036000CB1A921C03E013F8015B01F8015B521EEB
:10037000F9D5A142D8D3002070BDFEE72DE9F047A2
:1003800004280F467EDD20287CD1FE4C206F0068BB
:10039000016821F001010160216F002638684FF0EB
:1003A0000C094860206F8660206FC660206F066170
:1003B000216FC1F81490206F8661206FC661206F95
:1003C0000662206F4662206F02F03BFE08B100F02B
:1003D0006AFF206F0068C1690906FCD5016821F039
:1003E00001010160A078800715D5206F806E00683C
:1003F000016821F001010160226F906E00680168C0
:10040000C907FCD1116824318160206F00688168C0
:1004100041F080018160A078C00715D0206FC06EC8
:100420000068016821F001010160226FD06E006850
:100430000168C907FCD1116824318160206F006810
:10044000816841F040018160206F0168C06E2431F5
:1004500000688160216FE06AC96E0968C860B4F8FD
:100460007C10E06A0844216FC96E09680861216F39
:10047000B4F87C00C96E09684860C34D286F0068F5
:10048000016800E0FEE321F001010160296FB04640
:1004900038684860296F8E60296FCE60296F0E61C1
:1004A0002A6FC2F81490296F8E61296FCE61296F6F
:1004B0000E62296F4E62286F02F0C3FD08B100F092
:1004C000F2FE286F0068C1690906FCD5016821F0B9
:1004D00001010160A878800715D5286F806E00683B
:1004E000016821F0010101602A6F906E00680168C7
:1004F000C907FCD1116824318160286F00688168C8
:1005000041F080018160A878C00715D0286FC06EC7
:100510000068016821F0010101602A6FD06E006857
:100520000168C907FCD1116824318160286F006817
:10053000816841F040018160286F0168C06E2431FC
:1005400000688160296FE86AC96E0968C860B5F8FB
:100550007C10E86A0844296FC96E09680861296F30
:10056000B5F87C00C96E09684860884E306F006835
:10057000016821F001010160316FC24638684860AE
:10058000316FC1F80880316FC1F80C80316FC1F84C
:100590001080326FC2F81490316FC1F81880316F3B
:1005A000C1F81C80316FC1F82080316FC1F8248000
:1005B000306F02F046FD08B100F075FE306F006844
:1005C000C1690906FCD5016821F001010160B0781C
:1005D000800715D5306F806E0068016821F0010139
:1005E0000160326F906E00680168C907FCD1116824
:1005F00024318160306F0068816841F08001816042
:10060000B078C00715D0306FC06E0068016821F067
:1006100001010160326FD06E00680168C907FCD12A
:10062000116824318160306F0068816841F04001B9
:100630008160316FB04630460A68C96E243209685D
:100640008A60326FF16AD26E1268D160B6F87C208F
:10065000F16A1144326FD26E12681161B0F87C10E9
:10066000D8F87000C06E00684160494E306F006875
:10067000016821F001010160306F3968574641601F
:10068000306FC0F808A0306FC0F80CA0306FC0F811
:1006900010A0316FC1F81490306FC0F818A0306FFF
:1006A000C0F81CA0306FC0F820A0306FC0F824A0A4
:1006B000306F02F0C6FC08B100F0F5FD306F006845
:1006C000C1690906FCD5016821F001010160B0781B
:1006D000800715D5306F806E0068016821F0010138
:1006E0000160326F906E00680168C907FCD1116823
:1006F00024318160306F0068816841F08001816041
:10070000B078C00715D0306FC06E0068016821F066
:1007100001010160326FD06E00680168C907FCD129
:10072000116824318160306F0068816841F04001B8
:100730008160306F0168C06E243100688160316F64
:10074000F06AC96E0968C860B6F87C10F06A08449F
:10075000316FC96E09680861316FB6F87C00C96EE7
:10076000096848604FF400590A494A460A4805F0AA
:100770007BFA0A494A460A4805F076FA07494A468A
:10078000084811E044C60020C4C6002044C7002029
:10079000C4C700200C8500200CC500200C6500207B
:1007A00040C5002074C5002005F05EFAFE494A46A7
:1007B000FE4805F059FAFC494A46FD4805F054FA4E
:1007C000FC494A46FC4805F04FFA206FC06E0068AD
:1007D000016821F001010160226FD06E006801689C
:1007E000C907FCD11068016821F001010160206F88
:1007F000C06E00680268F1490A430260F048026F67
:10080000D26E1268136823F400231360B0F87430BA
:10081000B0F87CC0C26A03FB0C22036FDB6E1B685E
:10082000DA60B0F87420521CA0F87420B0F8782078
:10083000521CA0F87820B0F87420B0F87A309A42B0
:1008400001D3A0F87470B0F87430B0F87CC0C26AFC
:1008500003FB0C22036FDB6E1B681A61A0F8787033
:10086000A0F87670286FC06E0068026822F001025E
:1008700002602B6FD86E00680268D207FCD118683E
:10088000026822F001020260286FC06E00680268F0
:100890000A430260CB48026FD26E1268136823F4D9
:1008A00000231360B0F87430B0F87CC0C26A03FB58
:1008B0000C22036FDB6E1B68DA60B0F87420521CE8
:1008C000A0F87420B0F87820521CA0F87820B0F876
:1008D0007420B0F87A309A4201D3A0F87470B0F85E
:1008E0007430B0F87CC0C26A03FB0C22036FDB6E6D
:1008F0001B681A614346A0F87870A0F87670D8F8A3
:100900007000C06E0068026822F001020260D8F830
:1009100070C0DCF86C0000680268D207FCD1DCF81B
:100920000000026822F001020260186FC06E0068C9
:1009300002680A430260A448026FD26E1268D2F8BD
:1009400000C02CF4002CC2F800C0B0F874C0B0F89D
:100950007C80C26A0CFB0822D0F870C0DCF86CC046
:10096000DCF800C0CCF80C20B0F87420521CA0F8C1
:100970007420B0F87820521CA0F87820B0F87420C9
:10098000B0F87AC0624501D3A0F87470B0F874C0B2
:10099000B0F87C80C26A0CFB0822D0F870C0DCF88A
:1009A0006CC0DCF800C0CCF81020A0F87870A0F87B
:1009B0007670306FC06E0068026822F0010202603B
:1009C000326FD06E0068D0F800C05FEACC7CFAD1FC
:1009D0001068026822F001020260306FC06E006889
:1009E00002680A4302607948016FC96E09680A68A3
:1009F00022F400220A60B0F87420B0F87CC0C16A0A
:100A000002FB0C11026FD26E1268D160B0F8741044
:100A1000491CA0F87410B0F87810491CA0F87810A0
:100A2000B0F87410B0F87A20914201D3A0F8747035
:100A3000B0F87420B0F87CC0C16A02FB0C11026FE0
:100A4000D26E12681161A0F87870A0F87670276FE6
:100A50003868C1690906FCD5A0784FF010014FF045
:100A600008025FEA807C4FF0200029D5BF6E97F81E
:100A70005C80D7F858C000FA08F7CCF80870276FE8
:100A8000BF6E97F85C8001FA08F7CCF80870276F02
:100A9000BF6E97F85C8002FA08F7CCF80870276FF1
:100AA0003F68D7F808C04CF0800CC7F808C0276F23
:100AB000BF6E3F68D7F800C04CF0010CC7F800C00B
:100AC000A778FF072AD0276FFF6E97F85C80D7F8CA
:100AD00058C000FA08F7CCF80870276FFF6E97F837
:100AE0005C8001FA08F7CCF80870276FFF6E97F862
:100AF0005C8002FA08F7CCF80870276F3F68D7F8D7
:100B000008C04CF0400CC7F808C0276FFF6E3F6864
:100B1000D7F800C04CF0010CC7F800C02F6FD7F811
:100B200000C0DCF81C805FEA0868FAD595F802C0BE
:100B30005FEA8C7C29D5BF6E97F85C80D7F858C0E7
:100B400000FA08F7CCF808702F6FBF6E97F85C803A
:100B500001FA08F7CCF808702F6FBF6E97F85C8029
:100B600002FA08F7CCF808702F6F3F68D7F808C072
:100B70004CF0800CC7F808C02F6FBF6E3F68D7F8E5
:100B800000C04CF0010CC7F800C0AF78FF073FD0A1
:100B90002F6FFF6E97F85C80D7F858C000FA08F7FF
:100BA000CCF808702F6F13E00C650020A8C500205A
:100BB000DCC500200CA5002010C600201000040099
:100BC00044C60020C4C6002044C70020C4C700207B
:100BD000FF6E97F85C8001FA08F7CCF808702F6F69
:100BE000FF6E97F85C8002FA08F7CCF808702F6F58
:100BF0003F68D7F808C04CF0400CC7F808C02F6F0A
:100C0000FF6E3F68D7F800C04CF0010CC7F800C079
:100C10001F6FD7F800C0DCF81C805FEA0868FAD5BF
:100C200093F802C05FEA8C7C29D5BF6E97F85C8090
:100C3000D7F858C000FA08F7CCF808701F6FBF6EDD
:100C400097F85C8001FA08F7CCF808701F6FBF6E48
:100C500097F85C8002FA08F7CCF808701F6F3F68BD
:100C6000D7F808C04CF0800CC7F808C01F6FBF6EE3
:100C70003F68D7F800C04CF0010CC7F800C09F785F
:100C8000FF0700E0C1E02AD01F6FFF6E97F85C807D
:100C9000D7F858C000FA08F7CCF808701F6FFF6E3D
:100CA00097F85C8001FA08F7CCF808701F6FFF6EA8
:100CB00097F85C8002FA08F7CCF808701F6F3F685D
:100CC000D7F808C04CF0400CC7F808C01F6FFF6E83
:100CD0003F68D7F800C04CF0010CC7F800C0376F70
:100CE000D7F800C0DCF81C805FEA0868FAD596F8EF
:100CF00002C05FEA8C7C2ED5D7F86880D8F858708F
:100D000098F85C8000FA08FCC7F808C0D6F870C0F4
:100D1000DCF868C09CF85C8001FA08FCC7F808C0E1
:100D2000D6F870C0DCF868C09CF85C8002FA08FC59
:100D3000C7F808C0376F3F68D7F808C04CF0800C80
:100D4000C7F808C0376FBF6E3F68D7F800C04CF0D7
:100D5000010CC7F800C0B778FF0722D0376FD7F86B
:100D60006C8098F85CC0D8F8587000FA0CF0B86045
:100D7000306FC06E90F85C008140B960306FC06E1B
:100D800090F85C008240BA60306F0068816841F082
:100D900040018160306FC06E0068016841F0010160
:100DA0000160206FC06E0068016841F001010160C0
:100DB000206F0068016841F001010160286FC06E7A
:100DC0000068016841F001010160286F0068016856
:100DD00041F001010160186FC06E0068016841F0C8
:100DE00001010160186F0068016841F001010160B4
:100DF000306FC06E0068016841F001010160306F22
:100E00000068016841F0010101600020BDE8F08741
:100E10000020704705490022054810B503F070FC1A
:100E20000449034803F066FC002010BD64DA00208A
:100E3000C4C9002064D2002070B50D4604460146A6
:100E4000114803F057FC104803F038FC002016E06E
:100E50000E4A215CD668936A9955D168491CD160C5
:100E60009368994201D3C91AD160002302EB830130
:100E70005B1C8E69761C8E61022BF7DB401C296897
:100E80008142E5D8002070BDC4C900200CC50020F7
:100E90000A46094910B5D1F89012D1F8141209B1D7
:100EA000012010BD0146044803F02AFCBDE81040B3
:100EB000014803F083BC0000C4C900202DE9F041C3
:100EC0000446C06E002588464FF480668560E06E5B
:100ED000C560E06E0661E06E4561E06E8561B01050
:100EE000E16EC861E06E0562E06E00F0DDF96F1E34
:100EF000A0B9E06E84634020A16E8860A06EC560DA
:100F0000A06E0661A06E4561A06E8561A06EC56190
:100F1000A06E0562A06E00F0C7F910B13846BDE8BA
:100F2000F081A06E002211468463404600F0A4FBCD
:100F3000404600F093FB2068016821F02001016029
:100F40002068016821F080010160A06F20F022007C
:100F5000A0670020E3E738B5044600250498258003
:100F60000090204600F009F808B1012038BD208823
:100F700040F002002080002038BDF8B5044680789B
:100F80001D46069EC00708D0206FC06E00684368EB
:100F900000934368201D04F077FEA07880070BD5EE
:100FA000206F806E006841680091436804F138004A
:100FB0003246294604F068FE94F96C10206FFFF762
:100FC0007DFF0020F8BD00002349202230B591F8B4
:100FD0005C30886D9A40826091F85C2010219140CD
:100FE00081601E4C211DB4F87C30206918442061BA
:100FF000E268904201D3801AC860002001EB8002B1
:10100000401C022895691D449561F7DB1348B0F830
:101010007410491CA0F87410B0F87810491CA0F89E
:101020007810B0F87410B0F87A20914202D3002101
:10103000A0F87410206FC06E00680168B4F87420C6
:10104000B4F87C300903E16A02FB031101D5C160E9
:1010500030BD016130BD000064C90020C4C600205D
:101060002349202230B591F85C30886D9A40826027
:1010700091F85C201021914081601E4C211DB4F834
:101080007C30206918442061E268904201D3801AC4
:10109000C860002001EB8002401C022895691D44B5
:1010A0009561F7DB1348B0F87410491CA0F8741070
:1010B000B0F87810491CA0F87810B0F87410B0F8A7
:1010C0007A20914202D30021A0F87410206FC06EE4
:1010D00000680168B4F87420B4F87C300903E16A50
:1010E00002FB031101D5C16030BD016130BD0000BC
:1010F00044C8002044C700202349202230B591F87D
:101100005C30886D9A40826091F85C20102191409B
:1011100081601E4C211DB4F87C3020691844206188
:10112000E268904201D3801AC860002001EB80027F
:10113000401C022895691D449561F7DB1348B0F8FF
:101140007410491CA0F87410B0F87810491CA0F86D
:101150007810B0F87410B0F87A20914202D30021D0
:10116000A0F87410206FC06E00680168B4F8742095
:10117000B4F87C300903E16A02FB031101D5C160B8
:1011800030BD016130BD0000A4C8002044C600206D
:101190002349202230B591F85C30886D9A408260F6
:1011A00091F85C201021914081601E4C211DB4F803
:1011B0007C30206918442061E268904201D3801A93
:1011C000C860002001EB8002401C022895691D4484
:1011D0009561F7DB1348B0F87410491CA0F874103F
:1011E000B0F87810491CA0F87810B0F87410B0F876
:1011F0007A20914202D30021A0F87410206FC06EB3
:1012000000680168B4F87420B4F87C300903E16A1E
:1012100002FB031101D5C16030BD016130BD00008A
:1012200004C90020C4C7002001681823CAB2103ABC
:10123000B2FBF3F2054B6FF30901032A9B5CC36514
:1012400000D9091D8165084670470000F069000853
:10125000014610B500208B694FF0C0748A6A53B103
:10126000B3F5005F15D072B1012A0CD0022A0AD062
:10127000032A09D104E01AB1012A06D0022A03D1B7
:10128000C96AC90100D5012010BDC96AA142FAD0BE
:1012900010BD002AF7D0012AF2D0022AF3D0032A87
:1012A000F3D010BD704770472DE9F041044600F0BF
:1012B0005DF905465CB1002684F83460022084F8AC
:1012C00035002068016821F0010101600DE0012076
:1012D000BDE8F08100F04AF9401B052805D920201F
:1012E0006065032084F83500F2E720680068C007D5
:1012F000F0D121680A6820480240D4E9010318436C
:10130000D4E903352B43184363691843A369184391
:10131000E3691843236A18431043626A042A03D11D
:10132000D4E90B231A431043086020684069012761
:10133000656A20F0070128460D4304280CD1A06AF5
:101340000543E06A40B12046FFF782FF20B140200C
:10135000606584F83570BAE7206845612046FFF77C
:1013600063FF94F85C203F2191408160666584F8BA
:1013700035700020ACE700003F8010E070B50446F7
:1013800000F0F4F80546601C02D0044800780444DC
:1013900000F0ECF8401BA042FAD370BD60000020C2
:1013A0002DE9F84FDFF88C9100224FF00F0809F17A
:1013B000040A0AF1040B0BF1040E0B680126964097
:1013C0003340B34271D14C68022C01D0122C11D1A0
:1013D000D40800EB84073D6A5407E40E08FA04FCC5
:1013E00025EA0C05D1F810C00CFA04FC4CEA050CF7
:1013F000C7F820C00768540091F804C00325A54031
:101400000CF0030CAF430CFA04FC4CEA070CC0F8D8
:1014100000C04F68012F05D0022F03D0112F01D03B
:10142000122F11D18768D1F80CC0AF430CFA04FC1D
:101430004CEA070CC0F808C04768B7430E79C6F3FA
:10144000001696403E434660C668AE438D68A54090
:101450003543C5604C68E40065D5374C256845F4D4
:1014600080452560246822F0030504F4804400943C
:10147000324C2E19D6F808789407250F08FA05F48F
:10148000A7432F4CA04201D1002424E02D4CA042C0
:1014900001D101241FE02C4CA04201D102241AE00A
:1014A0002A4CA04202D1032415E03CE0284CA04283
:1014B00001D104240FE0274CA04201D105240AE009
:1014C000254CA04201D1062405E0244CA04201D1C4
:1014D000072400E00824AC403C43C6F80848D9F88B
:1014E00000404D464E689C43F60300D51C432C60DB
:1014F000DAF8004055464E689C43B60300D51C43BD
:101500002C60DBF800405D464E689C43F60200D537
:101510001C432C60DEF8004075464E689C43B602C2
:1015200000D51C432C60521C102AFFF446AFBDE8C6
:10153000F88F0000003C0140443802400030014078
:10154000000002400004024000080240000C02407B
:10155000001002400014024000180240001C02402B
:101560000AB1816170470904FBE700000148806807
:101570007047000060000020024881680278114432
:101580008160704760000020094810B5016841F48F
:1015900000710160016841F480710160032000F076
:1015A0008BF8032000F006F800F03EF8002010BD94
:1015B000003C024000B500220146192087B000F02F
:1015C0005BF8192000F04AF81348016841F0010166
:1015D0000160006805A900F001000690684601F06E
:1015E00055F801F089F80D4940000D4AB0FBF1F1C2
:1015F0000C48026040F2E732491E41600021C0E918
:101600000321816001F07EFA10B1012007B000BD16
:10161000044801F0B1FAF9E74438024040420F00B3
:101620000000014064E200200B4882B0016841F0F4
:1016300080510160006800F0805000900648001D55
:10164000016841F480410160006800F4804000902E
:10165000052002B000F030B840380240002809DB15
:10166000012100F01F0291404009800000F1E020BC
:10167000C0F80011704700000E4BF0B41B68C3F3B4
:101680000223C3F10704042C00D904241D1D072DD7
:1016900001D2002300E0DB1E012606FA04F56D1ED0
:1016A0000D409D409E40761E164045EA0601F0BC66
:1016B00004F0BBBA0CED00E0064A00F00701106828
:1016C0004FF6FF03184040EA012003490843106029
:1016D000704700000CED00E00000FA0501680122EF
:1016E000C0F8FC23002280F8F423886940F00060F1
:1016F0008861486D024A1043486500207047000029
:101700000300001070470068416200207047F0B588
:101710000368586A39B19C6A4FF4827500EB14442F
:1017200000204E1E0AE040EA024098620FE005EBFE
:101730008007DF59401CC0B204EB1744B042F6D317
:1017400044EA02404FF4807202EB810158500020BD
:10175000F0BDD0F8000403F084BAC1EBC10200EB85
:101760008202D0F80004926C03F0D7B9C1EBC10239
:1017700000EB8202D0F80004D2F8082203F030BA5D
:10178000D0F8000403F06FBA70B504464FF00102C0
:1017900001F00F004FF000050B06C0EBC00104EB99
:1017A000810103D581F83D203C3103E081F8FD51F2
:1017B00001F5FE71087094F8BC03012808D084F884
:1017C000BC23206803F000FE002084F8BC5370BDE9
:1017D000022070BD70B5044601F00F0062689042AF
:1017E00001D9012070BD0B064FF0010201F00F017D
:1017F0004FF00005C1EBC10104EB810103D581F875
:101800003D203C3103E081F8FD5101F5FE718D7002
:10181000087094F8BC03012808D084F8BC23206821
:1018200003F0A6FF002084F8BC5370BD022070BDF9
:1018300001F00F01C1EBC10100EB8100D0F81402EF
:1018400070472DE9F04104464FF0010601F00F000A
:101850004FF000050F06C0EBC00104EB810103D57A
:1018600081F83D603C3103E081F8FD5101F5FE71E6
:1018700008708A60CB704A7802B1C880022B00D110
:101880000D7194F8BC03012809D084F8BC6320686A
:1018900003F0B4FC284684F8BC53BDE8F081022074
:1018A000FBE770B501F00F040D46C4EBC40100EB7B
:1018B0008101C1F810320023C1F80822C1F81432A6
:1018C00081F8FD3181F8FC4101F5FE710369012BBE
:1018D00000D10A612A07027C006803D003F0A0FF50
:1018E000002070BD03F092FEFAE770B504460D4685
:1018F00001F00F006168884201D9012070BD2906FE
:101900004FF000064FF0010207D5C0EBC00104EB19
:10191000810181F83D203C3107E0C5EBC50104EBB6
:10192000810181F8FD6101F5FE718A70087094F8FB
:10193000BC03012807D084F8BC23206803F044FFCF
:10194000280702D007E0022070BD217C04F57172E7
:10195000206803F0E1FE002084F8BC6370BD70B520
:1019600001F00F040D46C4EBC40100EB81010B65CF
:1019700000238A644B65012381F83D3001F83C4F18
:101980000369012B00D10A612A07027C006803D099
:1019900003F046FF002070BD03F038FEFAE70000B8
:1019A0002DE9F84F04460068002583465E4604F0A2
:1019B0004EF800287ED1206804F075F8002879D010
:1019C000206804F070F8800704D52068416901F0B0
:1019D00002014161206804F066F801034FF0010A3A
:1019E00004F5717000906AD5206804F03BF88046D9
:1019F0005FE05FEAC87059D02068E9B204F04BF8A4
:101A00000746C00707D006EB4511C1F808AB2946C9
:101A1000204602F069F838072AD52068D0F84090AF
:101A200000EB4510D0F8081B2269012A12D0FC4BAC
:101A3000994505D1090403D54FF40041C0F8081BAE
:101A4000204600F0EDFAF74989450CD920690128B4
:101A500004D008E0F34B9945ECD8F1E72068012168
:101A6000009A03F059FE06EB45110820C1F8080B57
:101A7000F80604D506EB45111020C1F8080BB8068E
:101A80000CD52069012804D120680121009A03F0B7
:101A900043FE06EB45112020C1F8080BB80405D51C
:101AA00006EB45114FF40050C1F8080B6D1C4FEACE
:101AB000580801E0B1E102E0B8F1000F99D12068C7
:101AC00003F0F1FF40034FF000095ED5206803F0FA
:101AD000C2FF0025804655E05FEAC8704FD02068FD
:101AE000E9B203F0C6FF0746C00726D005F00F0293
:101AF0000AFA02F0D6F834288243C6F8342806EBF6
:101B00004510C0F808A92069012807D1C5EBC50018
:101B100004EB8000D0E91121114481642046E9B230
:101B2000FFF71BFE2069012807D135B9206D20B9C8
:101B300020680121009A03F0EFFD380704D506EB79
:101B400045110820C1F80809F80604D506EB45112F
:101B50001020C1F80809780604D506EB451140208D
:101B6000C1F80809B80704D506EB45110220C1F8F1
:101B70000809380603D52946204602F021F86D1CD5
:101B80004FEA5808B8F1000FA6D1206803F08BFF88
:101B9000002811DAD6F8040820F00100C6F804087D
:101BA00094F8F40301283BD0204600F01DFA206889
:101BB000416901F000414161206803F074FF0005B4
:101BC0000BD5D6F80808C00702D0204600F044FA2A
:101BD0002068416901F400614161206803F063FFFE
:101BE00000010AD52068416901F00061416194F863
:101BF000F403E0B1204600F02FFA206803F053FF11
:101C0000C00469D5D6F8040820F00100C6F804081D
:101C10002068102103F0FCFE00214FF67F3226E001
:101C20000021204684F8F493FFF76CFDBFE784F8A9
:101C3000F4A32068406D0121C0F38300C4F8F803C9
:101C40002046FFF75FFDD8E706EB4110C0F80829F2
:101C5000D0F8003923F40013C0F80039C0F8082B7D
:101C6000D0F8003B23F40013C0F8003B491C606827
:101C70008842E9D8D6F81C0840F00110C6F81C08C4
:101C8000206B60B1D6F8840840F00B00C6F88408D9
:101C9000D6F8440840F00B00C6F844080CE0D6F82B
:101CA000140842F22B010843C6F81408D6F81008AD
:101CB00040F00B00C6F81008D6F8000820F4FE60CB
:101CC000C6F80008217C2068009A03F025FD2068F2
:101CD000416901F480514161206803F0E4FE800411
:101CE00017D5206803F0CAFA206803F0A3FE58B3A2
:101CF0000320E06000F0EAFC227B0146206803F04C
:101D00000DFF204600F05AF92068416901F40051A6
:101D10004161206803F0C7FEC00638D5206881699C
:101D200021F010018161DBF8207007F00F00C0EB9B
:101D3000C00004EB8006C7F34340022806F5FE7698
:101D400005D0062814D01DE0C4F80C90D2E747F661
:101D5000F070074216D0C7F30A12F16817465846CA
:101D600003F0A5FEF0683844F060B069384408E03C
:101D700000990822584603F09AFEB069C7F30A1189
:101D80000844B0612068816941F0100181612068D8
:101D900003F089FE000707D5204600F029F92068E6
:101DA000416901F008014161206803F07CFEC00236
:101DB00008D52046E9B200F037F82068416901F4FF
:101DC00080114161206803F06EFE800208D5204634
:101DD000E9B200F02DF82068416901F40011416179
:101DE000206803F060FE400007D52046FFF7B1FCF5
:101DF0002068416901F080414161206803F053FE91
:101E000040070AD520684568680702D52046FFF7D5
:101E1000B7FC2068416829434160BDE8F88F0000A5
:101E20000A31544F0A30544FD0F8000402F06EBF0C
:101E3000D0F8000402F06CBF2DE9F04104008AB034
:101E400004D094F8BD03002520B108E001200AB0B9
:101E5000BDE8F081204684F8BC5300F061F803200F
:101E600084F8BD03206803F0CBFB04F11001684641
:101E700028228846FEF701FA94E80F0003F018FACA
:101E80000227D8BB2068002103F020FE0021012694
:101E900010E0C1EBC10004EB800080F83D6080F8E9
:101EA0003C10A0F84210491C80F83F50C9B245646C
:101EB0008564056560688842EBD8002111E0C1EBBC
:101EC000C10004EB800080F8FD5180F8FC11491C32
:101ED00080F8FF51C9B2C0F80452C0F80852C0F8E7
:101EE000105260688842EAD8282241466846FEF7C8
:101EF000C4F994E80F0003F0BFFA10B184F8BD7381
:101F0000A4E784F8385084F8BD63606A012802D1E0
:101F10002046FFF7E3FB206803F0A2FA002096E7D3
:101F200010B586B0044614216846FEF7BFF9204973
:101F30002068884239D11F4C206840F002002060A0
:101F40002068694600F0020005904FF44040009080
:101F50000220019000200290032003900C200490A6
:101F60001548FFF71DFA13481430016841F000418D
:101F70000160006800F000400590206840F00050CB
:101F80002060206800F000500590206840F08040FC
:101F9000206020680022032100F0804005904D2041
:101FA000FFF76AFB4D20FFF759FB06B010BD00009C
:101FB00000000440303802400004024070B504467E
:101FC000C068012570B1022801D0FFF76CF9D4F880
:101FD0000004294602F0EDFED4F80004BDE870408C
:101FE00002F0ADBE0025F2E7D0F8000402F0CFBE4B
:101FF000D0F8000402F0D1BE10B5044690F8BC033E
:1020000001280BD0012084F8BC0384F83810206824
:1020100003F073FD002084F8BC0310BD022010BD46
:10202000D0F8002400F57171104602F0CEBE10B554
:10203000044690F8BC0301280CD0012084F8BC03AE
:10204000206803F001FA206803F0CCFC002084F83B
:10205000BC0310BD022010BD10B50446D0F800042A
:1020600002F0F2FE2068D0F8001E41F00101C0F835
:10207000001E206A002804D00248016841F00601D1
:10208000016010BD10ED00E01848F8B5016841F09E
:10209000805101600068164D00F080500090286863
:1020A00040F480302860FFF761FA4FF47A760446F6
:1020B00004E0FFF75BFA001BB0420FD86868C0036A
:1020C000F7D5286840F400302860FFF74FFA04463F
:1020D00006E0FFF74BFA001BB04201D90320F8BD20
:1020E00068688003F5D50020F8BD00004038024044
:1020F000007000400248016841F48071016070473F
:10210000007000402DE9F84F044600780026DFF803
:102110000CA43546C0070ED0DAF8001021F40001F7
:10212000CAF80010DAF80010E26A1143CAF8001089
:10213000E06A00B901262068F94F00030ED538681F
:10214000616B20F4401008433860606BB0F5801F6D
:1021500001D010B102E0012600E001252068C00294
:102160000ED53868A16B20F4400008433860A06B9E
:10217000B0F5800F01D010B102E0012600E001258A
:102180002078800666D5E5483830016841F08051F6
:1021900001600068DFF88C9300F080500090D9F85F
:1021A000001041F48071C9F80010FFF7DFF9804694
:1021B00005E0FFF7DBF9A0EB080064287ED8D9F82A
:1021C0000000C005F5D5DFF85893A9F11C09D9F82E
:1021D000000010F440702AD0218D01F4407181423A
:1021E00025D0D9F80010D9F8002021F4407142F42C
:1021F0008032C9F80020D9F8002022F48032C9F8D2
:102200000020C9F80010D9F80000C0070FD0FFF770
:10221000ADF9804641F2883B05E0FFF7A7F9A0EB56
:1022200008015945CAD8D9F800008007F5D5A06A39
:10223000C0F3012103297DD0DAF8001021F4F81150
:10224000CAF80010D9F80010228DC2F30B02114316
:10225000C9F800102078C00607D5386820F08070D3
:1022600038603868216B0843386020884104AE48E4
:1022700005D50168E26D21F44031114301602188E8
:10228000090405D50168226E21F440211143016043
:102290002168C90305D50168626E21F4401111431C
:1022A00001602178490605D50168E26B21F0030140
:1022B000114301602178090607D500E008E10168B3
:1022C000226C21F00C01114301602188C90505D55C
:1022D0000168626C21F03001114301602188890599
:1022E00005D50168A26C21F0C0011143016021886D
:1022F000490505D50168E26C21F440711143016084
:102300002188090505D50168226D21F4406111433A
:1023100001602188C90405D50168626D21F440512E
:10232000114301602188890407D50168A26D21F459
:10233000404100E031E01143016021684FF0006945
:10234000890209D50168626F21F0006111430160C3
:10235000616F494500D101252168490305D5016810
:10236000E26E21F04071114301602168090205D538
:102370000168A26F21F08051114301602168490179
:1023800005D50168E26F21F0005111430160DFF8CB
:102390008C81A8F1080876B909E0DAF80020634BCF
:1023A00022F4F81218400243CAF800204AE72068D5
:1023B000B0F1007F61D1D8F8001021F08061C8F839
:1023C0000010FFF7D3F8064604E0FFF7CFF8801BB4
:1023D00064287DD8D8F800000001F6D4207854494C
:1023E000C0070CD0E06A50B908686268C0F30360A7
:1023F000920142EA0060227A40EA02700860206896
:10240000020303D5626BB2F5801F05D0C00215D55B
:10241000A06BB0F5800F11D108686268237BC0F310
:102420000270920142EA036242EA00700860386872
:10243000E26920F01F00521E1043386020688001BE
:1024400008D56068227B800140EA0260227A40EA77
:1024500002700860D8F8001041F08061C8F80010E0
:10246000FFF784F8064604E0FFF780F8801B642835
:1024700067D8D8F800000001F6D555B3D8F80000A9
:10248000454620F08050C8F80000FFF76FF8064678
:1024900004E0FFF76BF8801B642852D82868C0431B
:1024A0008000F6D520682349020301D5626B1AB17A
:1024B000C00219D5A06BB8B908682269C0F3014001
:1024C000920142EA0040227D40EA0260086001E099
:1024D00037E03DE038686FF0FF03226A20F4F850DF
:1024E00003EB022210433860206880020DD5606F34
:1024F00048450AD108682269238BC0F30360920122
:1025000042EA034242EA00600860286840F08050D6
:102510002860FFF72BF8044616E000000838024058
:102520008C3802400070004090380240FFFCFF0FE2
:102530008438024088380240FFF718F8001B6428EE
:1025400002D90320BDE8F88F2868C0438000F3D487
:102550000020F7E72DE9F04704000D4669D0DFF8C9
:102560001C81D8F8000000F00F00A8420CD2D8F867
:10257000001021F00F012943C8F80010D8F800001E
:1025800000F00F00A84254D120683D4E810712D5BB
:10259000400703D5306840F4E050306020780007F1
:1025A00003D5306840F4604030603068A16820F0A6
:1025B000F000084330602078C00729D030496068B7
:1025C0000839012810D00968022810D0890700298D
:1025D0002FDA316821F0030101433160FEF7C6FFB5
:1025E000074641F288390CE009688903EFE7890161
:1025F000EDE7FEF7BBFFC11B494502D90320BDE84B
:10260000F0873068616800F00C00B0EB810FF0D10A
:10261000D8F80010404601F00F01A9420BD901681B
:1026200021F00F0129430160006800F00F00A8426B
:1026300001D00120E3E72078400705D53068E16844
:1026400020F4E050084330602078000706D5306859
:10265000216920F4604040EAC100306000F05CF87D
:102660003168084AC1F30311515CC840064908604B
:102670000320FEF79FFF0020C1E70000003C02405E
:1026800008380240F86900086C0000200F22026040
:102690000C4A136803F003034360136803F0F0036C
:1026A0008360136803F4E053C36012684FF4E0538F
:1026B00003EAD20202610448006800F00F000860DB
:1026C0007047000008380240003C024001480068A2
:1026D000704700006C000020044805490068096844
:1026E000044AC1F38221515CC84070476C0000204D
:1026F00008380240086A000804480549006809686B
:10270000044AC1F34231515CC84070476C0000205C
:1027100008380240086A0008154810B5006810F033
:102720000C01144813D0144B04290FD008290ED1E2
:102730000F4C241F216801F03F022168490207D590
:102740002068C0F38810A0FB030106E0184610BD06
:102750002168C1F38811A1FB00010023FDF75CFD96
:102760002168C1F30141491C4900B0FBF1F010BDE3
:10277000083802400024F40040787D012DE9F84F2C
:1027800004004FF0000877D02078DFF804A3AAF106
:10279000040BC007ABF104054AD0DAF8001050462C
:1027A000C1F38101012908D00068C0F3810002282B
:1027B0000AD1DBF80000400206D52868800337D52F
:1027C00060680028DFD033E06068B0F5803F0BD050
:1027D00010B1B0F5A02F11D0286820F48030286007
:1027E000286820F4802002E0286840F480302860C7
:1027F000606888B1FEF7BAFE064609E0286840F432
:1028000080202860F0E7FEF7B1FE801B642873D8B3
:1028100028688003F7D50BE0FEF7A8FE064604E023
:10282000FEF7A4FE801B6428F1D828688003F7D443
:102830002078800740D5DAF80010504611F00C0FD0
:1028400008D00068C0F3810002280AD1DBF800003C
:10285000400206D42868800717D5E06801280BD10C
:1028600013E0E0680028286817D040F001002860D5
:10287000FEF77CFE064605E007E1FEF777FE801BCB
:102880000228C4D828688007F7D52868216920F075
:10289000F80040EAC10028600EE020F00100286046
:1028A000FEF764FE064604E0FEF760FE801B022889
:1028B00022D828688007F7D42078000725D5744FE0
:1028C00060696C37002838680FD040F0010038602C
:1028D000FEF74CFE064604E0FEF748FE801B022889
:1028E0000AD838688007F7D50FE020F0010038607B
:1028F000FEF73CFE064605E082E0FEF737FE801B51
:1029000002287DD838688007F7D42078400769D539
:10291000DFF87C9109F13809D9F80000C0000CD427
:10292000D9F8001041F08051C9F80010D9F8000022
:102930004FF0010800F080500090564F3868C005F5
:102940000FD4386840F480703860FEF70FFE0646FA
:1029500004E0FEF70BFE801B642851D83868C005E0
:10296000F7D54B4FA068683701280AD008B1052871
:1029700011D0386820F001003860386820F0040079
:1029800002E0386840F001003860A06898B1FEF7B6
:10299000EDFD06460BE0386840F004003860F0E7D3
:1029A000FEF7E4FD811B41F28830814265D838682A
:1029B0008007F5D50DE0FEF7D9FD064606E0FEF7E7
:1029C000D5FD811B41F28830814256D83868800796
:1029D000F5D4B8F1000F05D0D9F8001021F08051DE
:1029E000C9F80010A069C8B3DAF80010C1F381017A
:1029F00002294AD00228286820F08070286000E070
:102A00003BE003D0FEF7B2FD044639E0FEF7AEFD31
:102A1000064604E0FEF7AAFD801B02282DD8286890
:102A20008001F7D4D4E907011B4A0843A16A490889
:102A300002EB0141626A41EA8211084394F82C10CA
:102A400040EA016040F00051CBF80010286840F0E7
:102A500080702860FEF78AFD044605E013E0FEF76B
:102A600085FD001B022808D828688001F7D50AE0F8
:102A7000FEF77CFD001B022802D90320BDE8F88F79
:102A800028688001F4D40020F8E70120F6E7000070
:102A900008380240007000400000FFFF7047704798
:102AA0007047000070B590F83C20012A24D0012521
:102AB00080F83C50022280F83D2003685A689E68E6
:102AC0000E4CA34202D00E4CA34203D122F4700458
:102AD0004A68224322F070040A68896822435A60D7
:102AE00026F0800421430268916080F83D50002167
:102AF00080F83C10084670BD022070BD0000014007
:102B00000004014010B5040003D094F83D0010B15A
:102B100007E0012010BD002084F83C00204600F0B2
:102B20000DF8022084F83D002068211D01F04AF9CB
:102B3000012084F83D00002010BD000008B50068A9
:102B40000B49884212D10B48016841F48071016041
:102B500000680022114600F4807000902D20FEF7DE
:102B60008BFDBDE808402D20FEF778BD08BD0000B4
:102B700000200040403802400168CA6842F001026B
:102B8000CA6001688868064A1040062806D0B0F579
:102B9000803F03D0086840F00100086000207047C3
:102BA00007000100704770B50446006801694FF0E6
:102BB0000005C943890715D4C168C943890711D4E1
:102BC000E91E016101202077206880698007204686
:102BD00002D0FFF7E7FF04E000F02EF9204600F0F6
:102BE00023FA257720680169C943490717D4C168CA
:102BF000C943490713D46FF0040101610220207713
:102C00002068806910F4407F204602D0FFF7CAFF99
:102C100004E000F011F9204600F006FA257720685C
:102C20000169C943090716D4C168C943090712D409
:102C30006FF008010161042020772068C0698007D7
:102C4000204602D0FFF7AEFF04E000F0F5F8204682
:102C500000F0EAF9257720680169C943C90617D44D
:102C6000C168C943C90613D46FF01001016108207F
:102C700020772068C06910F4407F204602D0FFF71B
:102C800091FF04E000F0D8F8204600F0CDF9257758
:102C900020680169C943C90708D1C168C943C90788
:102CA00004D1891E0161204600F0C0F92068016945
:102CB000C943090609D4C168C943090605D46FF0A0
:102CC000800101612046FFF7EAFE20680169C943DF
:102CD000C90509D4C168C943090605D46FF48071D8
:102CE00001612046FFF7DAFE20680169C943490601
:102CF00009D4C168C943490605D46FF04001016198
:102D0000204600F09DF920680169C94389060BD46B
:102D1000C168C943890607D46FF0200101612046CC
:102D2000BDE87040FFF7BCBE70BD000030B587B095
:102D3000044614216846FDF7B9FA21680023354A94
:102D400002240120B1F1804F15D0334DA94224D186
:102D5000116841F0020111601168009001F0020158
:102D60002E48CDE901430393CDE904416946FEF7BE
:102D700017FB07B030BD116841F001011160116807
:102D800001F00101059148F202010091CDE90143F2
:102D9000CDE9033022486946E9E7224D2248A9429D
:102DA0000FD1116841F080011160116801F08001BC
:102DB0000591C1140091CDE90143CDE90334694681
:102DC000D5E71A4DA94211D1106840F010001060EB
:102DD0001068694600F01000059060200090032004
:102DE000CDE90143CDE903301148C0E7114DA942B7
:102DF000BFD1116841F080011160116801F08001BC
:102E00000591402100910921CDE90143CDE903312C
:102E10006946ACE73038024000040040000402403C
:102E200000000240000C0040001C02400040014035
:102E30000010024000180040704770B5044690F83A
:102E40003C000D4601280ED0012684F83C6002208B
:102E500084F83D000C2A45D007DC5AB1042A1BD067
:102E6000082A78D12CE0022070BD102A4ED0142AF6
:102E700071D15DE0206801F009F82068816941F0B6
:102E8000080181612068816921F004018161206865
:102E900081692A69114311E0206801F02BF820684C
:102EA000816941F4006181612068816921F4806158
:102EB0008161206881692A6941EA022181614AE0D1
:102EC000206801F051F82068C16941F00801C16132
:102ED0002068C16921F00401C1612068C1692A69C3
:102EE000114311E0206801F077F82068C16941F4CE
:102EF0000061C1612068C16921F48061C1612068FD
:102F0000C1692A6941EA0221C16124E0206801F017
:102F10008FF82068416D41F0080141652068416DDE
:102F200021F0040141652068416D2A69114311E0D7
:102F3000206801F0A5F82068416D41F40061416509
:102F40002068416D21F4806141652068416D2A69E6
:102F500041EA0221416584F83D60002084F83C008C
:102F600070BD10B5040003D094F83D0010B107E027
:102F7000012010BD002084F83C00204600F00CF831
:102F8000022084F83D002068211D00F01BFF012075
:102F900084F83D00002010BD08B500681D49B0F15F
:102FA000804F0BD01C4A904210D1086840F00200BC
:102FB0000860086800F00200009008BD086840F052
:102FC00001000860086800F00100F5E7134A90422C
:102FD00007D1086840F008000860086800F00800A1
:102FE000EAE70F4A904209D10A48001D016841F4FE
:102FF00080310160006800F48030DDE7094A9042CA
:10300000DBD1086840F040000860086800F040002C
:10301000D2E700004038024000040040000C0040AD
:10302000004001400018004070470000006803495C
:10303000884201D1FEF7A0BA7047000000000140AD
:10304000704710B5040002D0606F10B107E0012096
:1030500010BD002084F87000204600F025F82420E0
:1030600060672068016821F001010160204601F0DD
:10307000FFF80128ECD0606A10B1204601F076F824
:103080002068416821F4904141602068816821F006
:103090002A0181602068016841F001010160204639
:1030A000BDE8104001F0C6B82DE9F04786B00446EF
:1030B00014216846FDF7FAF88E4900258D4A02234F
:1030C0001039DFF82CC220684FF0030857054FF085
:1030D00008090E15604532D1106840F400201060D8
:1030E000106800F400200590086840F08000086037
:1030F0000868694600F0800005904FF4C0408DE8F4
:1031000029037D48FEF74CF9DFF8F4817B494046FE
:10311000C8F80010B101C0E90175C0E90356C8F84C
:103120001450C8F81850C8E90751C8F82450D7E01F
:10313000C4F86C80C8F8384006B0BDE8F087DFF806
:10314000C4C160454FD1106840F0804010601068E5
:1031500000F080400590086840F020000860086892
:103160000DF1080CDFF8A0A11F4600F0200005902B
:10317000C0206946CDE9000301208CE801035046D8
:10318000FEF70EF94FF400706946CDE9000702AF73
:10319000504687E82003FEF703F95C4F574938464D
:1031A000183139604FF02061C0E90115C0E90356BC
:1031B0004FF440317D61BD61C0E907510421FD62DA
:1031C000C7E909183D63FEF76FF808B1FEF76BF821
:1031D000E76600220221BC635220FEF74DFA52201E
:1031E000FEF73CFAA8E7DFF828C14FF0070A604570
:1031F0002CD1106840F400301060106800F40030EA
:103200000590086840F0010008600868694600F011
:10321000010005900C208DE829053E48FEF7C0F816
:10322000DFF8F480354940464831C8F80010C0E95D
:103230000175C0E90356C8F81450C8F81850C8F80A
:103240001C50C8F82050C8F8245049E0DFF8CCC022
:103250006045C7D1106840F480201060106800F409
:1032600080200590086840F004000860086800F0BD
:1032700004000590086840F00800086008680DF137
:10328000080C9946694600F0080005904FF400606C
:10329000CDE900038CE820052148FEF781F84FF4C2
:1032A00080706946CDE900090DF108091D4889E8DB
:1032B0002005FEF775F8DFF8708010494046183990
:1032C000C8F800104FF40031C0E90175C0E9035699
:1032D000C8F81450C8F81850C8E90751C8F8245065
:1032E000FDF7E2FF00283FF423AFFDF7DCFF1FE707
:1032F000004C004040380240001C02404060024048
:1033000044C800200078004000140240A4C80020F7
:10331000004400400000024004C900200048004072
:1033200000080240000C024064C90020FEE7F0B52E
:1033300000230A241F463025372610E0B4EB107F07
:1033400002D905EB107C01E006EB107C01F813C0FC
:1033500001EB430C00015B1C8CF80170DBB2934263
:10336000ECD3F0BD2DE9F04F87B014216846FCF78F
:103370009DFFFE48016841F010010160016801F005
:1033800010010591016841F002010160016801F03E
:1033900002010591016841F040010160016801F0FE
:1033A00040010591016841F008010160016801F0E8
:1033B00008010591016841F004010160016801F014
:1033C00004010591016841F001010160016801F00B
:1033D00001010591016841F480710160016801F407
:1033E00080710591016841F080010160016801F080
:1033F00080010591016841F0200101600068002210
:10340000182100F020000590D948FEF7A9F8D94806
:1034100000224FF4E241FEF7A3F8D748002240F221
:103420000F41FEF79DF8D54800220821FEF798F8D5
:103430000122D348D103FEF793F8D24800224FF47B
:103440009061FEF78DF8CE48002241F28C21FEF704
:1034500087F84FF4807ACC4800225146FEF780F876
:10346000CA4800222021FEF77BF8C948002241F615
:103470000201FEF775F80024694618200090012724
:10348000BB48CDE901740394FDF78AFF09204FF092
:1034900004080325CDF8008002266946CDE90350D3
:1034A000B348CDE90164FDF77BFF02AA4FF68370B4
:1034B000CDE900064FF00C09AD4882E830026946BC
:1034C000FDF76EFF2802009012206946CDE9010742
:1034D000AF48CDE90358FDF763FF30200294CDE9F2
:1034E000000605206946CDE90350A948FDF758FFBD
:1034F0004FF4E2400090CDE901749E486946039480
:10350000FDF74EFF02AA4DF6B360CDE900069B48D9
:10351000694682E83002FDF743FFF0024FF0080BE6
:1035200002AA6946CDE90006984882E83008FDF70E
:1035300037FF8020694602AACDE90006944882E858
:103540003002FDF72DFF40200294CDE900060A204D
:103550006946CDE903508E48FDF722FFB003009085
:103560008C486946CDE901048248FDF719FF7002D5
:1035700000900A206946CDE90164CDE903407D4809
:10358000FDF70EFF68020294CDE9000609206946A6
:10359000CDE903507D48FDF703FFE8020294CDE931
:1035A00000060A206946CDE903507648FDF7F8FE8B
:1035B000F02000900A206946CDE90164CDE903407E
:1035C0006D48FDF7EDFE02AA40F23F20CDE900066E
:1035D0006848694682E83002FDF7E2FE40F20F409B
:1035E0000090CDE90174644869460394FDF7D8FE64
:1035F0003002009067486946CDE901045E48FDF756
:10360000CFFECDF800B06946CDE901745B48039464
:10361000FDF7C6FE02AA5948694682E83008CDE99E
:103620000086FDF7BDFE49F28C200090CDE90174C3
:10363000534869460394FDF7B3FE4FF49060009041
:10364000CDE901744F4869460394FDF7A9FE02AA2B
:103650004FF23F00CDE900064B48694682E8300250
:10366000FDF79EFE30026946CDE90004454802940C
:10367000FDF796FE1220CDF800A0CDE901074148E4
:103680006946CDE90358FDF78BFE42486946CDF8FF
:1036900000A0CDE901043D48FDF782FEC020694647
:1036A00002AACDE90006394882E83008FDF778FE25
:1036B0003020009012206946CDE901073048CDE95D
:1036C0000358FDF76DFE70026946CDE900052E48EE
:1036D0000294FDF765FECDF800A06946CDE90174BE
:1036E00029480394FDF75CFE70026946CDE90004A9
:1036F00023480294FDF754FE13206946CDE90005E6
:1037000022480294FDF74CFE0520CDF80090694652
:10371000CDE903501D48CDE90164FDF741FE0920C4
:10372000CDF800806946CDE903501948CDE9016420
:10373000FDF736FE1220CDF800A0CDE901071048B4
:103740006946CDE90358FDF72BFE30030294CDE91D
:10375000000609206946CDE903500848FDF720FE20
:1037600050206946CDE90005029415E0303802404A
:10377000001002400018024000200240000C0240ED
:10378000001C0240000002400014024000080240F9
:1037900000040240000011101A48FDF701FE20202D
:1037A0000294CDE9000605206946CDE9035015488D
:1037B000FDF7F6FD20200090CDE90174124869461E
:1037C0000394FDF7EDFD41F602000090CDE9017490
:1037D0000E4869460394FDF7E3FD4FF41050009046
:1037E0000B486946CDE901040848FDF7D9FDB00250
:1037F0006946CDE9000407480294FDF7D1FD07B002
:10380000BDE8F08F000002400008024000040240C2
:10381000000011100014024010B588B01C21684649
:10382000FCF744FD0D4800240B49C0E900148460F6
:10383000C46004618461FFF794FB60206946CDE9B0
:1038400000040648002202940494FFF7F6FA0348A5
:10385000FFF76CFA08B010BD001800408C02002081
:1038600010B58AB0002468461C2107940894099476
:10387000FCF71CFD12484FF08041C0E90014846041
:10388000C46004618461FFF76CFB0D4807A90794CD
:103890000994FFF707F960206946CDE9000408485C
:1038A000002202940494FFF7C8FA054804226946EE
:1038B000FFF7C3FA0248FFF739FA0AB010BD00005B
:1038C0008C01002010B58AB0002468461C210794A2
:1038D00008940994FCF7EAFC10480F49C0E9001469
:1038E0008460C46004618461FFF73BFB0B4807A957
:1038F00007940994FFF7D6F860206946CDE90004E3
:103900000648082202940494FFF797FA0348FFF749
:103910000DFA0AB010BD000000040040CC010020E8
:1039200010B58AB0002468461C21079408940994B5
:10393000FCF7BCFC10480F49C0E900148460C46067
:1039400004618461FFF70DFB0B4807A907940994F4
:10395000FFF7A8F860206946CDE900040648042274
:1039600002940494FFF769FA0348FFF7DFF90AB0FD
:1039700010BD0000000C00400C02002010B588B003
:103980001C216846FCF792FC104800240E49C0E94F
:1039900000148460C46004618461FFF7E2FA60206F
:1039A0006946CDE900040948002202940494FFF717
:1039B00044FA064804226946FFF73FFA0348FFF736
:1039C000B5F908B010BD0000004001404C020020D5
:1039D0000948084901604FF4E131416000210C229F
:1039E0008160C160C0E904128161C161016241620C
:1039F000FFF727BB004C00400C0300200948084992
:103A000001600949416000210C228160C160C0E968
:103A100004128161C16101624162FFF712BB0000C3
:103A2000007800408C03002080841E00094808496B
:103A300001604FF4E131416000210C228160C160DE
:103A4000C0E904128161C16101624162FFF7F9BA04
:103A5000004400400C0400200948084901604FF46C
:103A6000E131416000210C228160C160C0E9041293
:103A70008161C16101624162FFF7E3BA0048004021
:103A80008C04002010490122104810B501F01EF8E6
:103A900008B1FDF708FC0E490C4801F0FBF908B12C
:103AA000FDF701FC0B49094800F01CFE08B1FDF7C9
:103AB000FAFB064801F044FA002803D0BDE81040A4
:103AC000FDF7F1BB10BD000000000020C4C90020BC
:103AD0004C01002050000020FEE770470148FDF730
:103AE0005FBF000060CC00202DE9F0410546006872
:103AF0000E46016C00EB4614D4F8080B4FF400425C
:103B00002B694FF0200C012B07D02B4B99424CD145
:103B1000010446D5C4F8082B4BE0DFF8A0E003070A
:103B200005F5717711D5714503D9000401D5C4F8A5
:103B3000082B2846FEF774FA286801213A4601F05E
:103B4000EBFD0820C4F8080B33E0830602D5C4F867
:103B500008CB2EE010F0280F2BD1714501D90004BD
:103B6000D8D4C6EBC600D4F8102B05EB8000D0F8F3
:103B70000412C2F312028A1AC0F81422D0F80822E2
:103B80001144C0F808122846F1B2FDF7EFFD86B9DE
:103B9000D5F8100268B9286801213A4601F0BCFD49
:103BA00007E0800601D5C4F808CB2846F1B2FDF73E
:103BB000DDFD0020BDE8F0810A31544F0A30544F3A
:103BC0002DE9F84F0E46D0F800808146C1EBC601C2
:103BD00000EB8104D4E914103C34884202D901205E
:103BE000BDE8F88F081AA168814200D20846C01CBF
:103BF00008EB461A870815E0451AA068A84200D2CB
:103C00000546E81CABB2870899F8100000904046C2
:103C1000E168F2B201F0F6FFE0682844E060A069D4
:103C20002844A061DAF8180980B2B84205D3D4E973
:103C30000501814201D20028DED1D4E90501884284
:103C400008D8012006F00F018840D8F834188143C5
:103C5000C8F834180020C3E7704770477047000069
:103C600030B5B3B0302120A8FCF720FB14212CA8DC
:103C7000FCF71CFB80216846FCF718FBFEF73AFABC
:103C80002148016841F080510160006800F08050D7
:103C900031901E48016841F44041016000680224EF
:103CA00000F44040319001202090000421908001D8
:103CB000CDE92640192028904FF4D870CDE9290489
:103CC00009202B9020A8FEF759FDFEF7DDF90F2003
:103CD000CDE92C044FF4A05000240721CDE92E405B
:103CE0004FF4805530952CA8FEF734FC084800901E
:103CF0000420CDE91004402015951D9412906846CB
:103D0000FEF700FA33B030BD40380240007000408A
:103D1000801320001048016841F4700101600F48D1
:103D2000016841F0010101600C4A00210832116074
:103D300002680B4B1A400260031D0A4A1A600268AF
:103D400022F48022026005480C30016058060249C6
:103D5000803908607047000088ED00E000380240BC
:103D6000FFFFF6FE103000240148FEF71CBF0000E4
:103D700064E200200E4810B5016921F001010161E3
:103D8000002281150B48FDF7EBFB0B4800224FF496
:103D90000061FDF7E5FB094800224FF48051FDF773
:103DA000DFFB00220648BDE810400421FDF7D8BB28
:103DB00000200040001402400004024000180240AD
:103DC000001C0240F0B502684FF0804E244D254E95
:103DD000254FA842DFF894C0254B09D0704507D085
:103DE000B04205D0B84203D0604501D0984203D11B
:103DF00022F070044A682243A8421BD0704519D0B3
:103E0000B04217D0B84215D0604513D0984211D0B7
:103E1000184CA0420ED0184CA0420BD0174CA04218
:103E200008D0174CA04205D0164CA04202D0164C28
:103E3000A04203D122F44074CA6822434C6922F0A4
:103E40008002224302608A68C2620A688262A842D3
:103E500001D0984201D10969016301214161F0BD9E
:103E6000000001400004004000080040000C004039
:103E7000000401400040014000440140004801406E
:103E800000180040001C004000200040F0B5026A0D
:103E900022F001020262056A4268836925F0020588
:103EA000114C124E23400C6823F00303104F1C43A7
:103EB0008B682B43B04201D0B84205D123F00805EE
:103EC000CB682B4323F00403B04201D0B84205D1A4
:103ED0004D6922F4407215438A692A434260846125
:103EE000496841630362F0BD8FFFFEFF000001409F
:103EF00000040140F0B5026A22F010020262056A75
:103F000042688369154C174E23400C6823F44073B4
:103F100043EA042425F020038D6843EA0513104D7D
:103F2000A84201D0B04206D1CF6823F0800343EA13
:103F3000071323F04003A84201D0B04207D14D69D6
:103F400022F4406242EA85028D6942EA85024260BB
:103F50008461496881630362F0BD0000FF8FFFFE4A
:103F60000000014000040140F0B5026A22F48072B2
:103F70000262056A4268C369144C164E23400C68FD
:103F800023F003031C4325F400738D6843EA0523E3
:103F90000F4DA84201D0B04206D1CF6823F4006390
:103FA00043EA072323F48063A84201D0B04207D13B
:103FB0004D6922F4405242EA05128D6942EA051227
:103FC0004260C4614968C1630362F0BD8FFFFEFFB8
:103FD000000001400004014030B5026A22F4805222
:103FE0000262046A4268C36924F400540D4D2B40F8
:103FF0000D6823F4407343EA05238D6844EA0534D1
:10400000094DA84202D0094DA84204D14D6922F4BD
:10401000804242EA85124260C361496801640462D9
:1040200030BD0000FF8FFFFE000001400004014092
:1040300030B5026A22F480320262056A4268436D3A
:104040000C4C23400C681C4325F400330D8943EAD3
:104050000543094DA84202D0084DA84204D14D693C
:1040600022F4803242EA0522426044654968816553
:10407000036230BD8FFFFEFF0000014000040140DD
:1040800030B5026A22F480120262056A4268436D0A
:104090000D4C23400C6843EA042425F400130D89D9
:1040A00043EA0553094DA84202D0094DA84204D164
:1040B0004D6922F4802242EA8522426044654968C3
:1040C000C165036230BD0000FF8FFFFE00000140AC
:1040D0000004014030B5214C2068C369990615D50C
:1040E000416A1F48C568826A5155C168491CC16050
:1040F0008268914201D3891AC160002100EB8102DC
:10410000491C95696D1C95610229F7DB20680168DF
:1041100009061DD519061BD512498A6982B10846C0
:10412000826A0169535C491C01618268914201D332
:10413000891A01618169491E81610B48036007E0AA
:104140000A6822F001020A60016821F08001016022
:10415000054908200839086030BD00008C030020A4
:1041600040C500200CC500202878004090F824109D
:10417000C90706D001684A68836A22F400321A43EC
:104180004A6090F82410890706D501684A68C36A16
:1041900022F480321A434A6090F82410490706D569
:1041A00001684A68036B22F480221A434A6090F83F
:1041B0002410090706D501684A68436B22F40042BF
:1041C0001A434A6090F82410C90606D501688A6827
:1041D000836B22F480521A438A6090F82410890677
:1041E00006D501688A68C36B22F400521A438A60BC
:1041F00090F82410490611D501684A68036C22F42E
:1042000080121A434A60016CB1F5801F06D1016823
:104210004A68436C22F4C0021A434A6090F82410A2
:10422000090606D501684A68806C22F40022024320
:104230004A60704738B500250446C567FDF796F912
:1042400003462068006800070BD56FF07E400090A1
:10425000002220464FF4001100F02EF908B103208F
:1042600038BD20206067A067002084F8705038BDFA
:1042700070B5044600200546A2682169E3690A4337
:10428000616919430A4321680B687F4E3340134329
:104290000B6021684A68E36822F440521A434A607E
:1042A000226AA1690A4321688B6823F430631343AF
:1042B0008B60764E4FF400422168754BB1420AD1B3
:1042C000196811F0030152D001297BD0022971D065
:1042D00003296ED183E06F4EB1420AD1196811F003
:1042E0000C0167D0042965D0082974D00C2960D14D
:1042F00075E0694EB1420AD1196811F0300159D008
:1043000010296AD0202966D0302952D167E0634E47
:10431000B1420AD1196811F0C0014BD040295CD0DC
:10432000802958D0C02944D159E05D4EB1420DD109
:10433000196811F440713DD0B1F5807F4DD0B1F5D1
:10434000007F48D0B1F5407F33D148E0554EB142AF
:104350000FD1196811F4406109D0B1F5806F3CD0DC
:10436000B1F5006F37D0B1F5406F22D137E00121B0
:1043700020E04D4EB1420DD1196811F4405119D0D1
:10438000B1F5805F29D0B1F5005F24D0B1F5405F71
:104390000FD124E0454EB1420BD1196811F44041D0
:1043A00008D0B1F5804F18D0914214D0B1F5404FEC
:1043B00015D01021E3694FF6EF76934236D10929E3
:1043C00026D201E009E006E0DFE801F00B0E18223A
:1043D0001B2222221E000221ECE70421EAE7082129
:1043E000E8E7FEF779F901E0FEF786F94100606839
:1043F00001EB5001B1FBF0F080B20AE02C4960689B
:10440000F6E7FEF789F9F1E760684FF48031EFE7EE
:104410000125A0F11001B14230D84FF6F0710140F2
:10442000C0F3420001432068C16028E009291DD281
:10443000DFE801F00508121C151C1C1C1800FEF713
:104440004BF901E0FEF758F90146606801EB5001B5
:10445000B1FBF0F080B20AE016496068F6E7FEF7BB
:104460005BF9F1E7606802EB5001F1E70125A0F18B
:104470001001B14202D82168C86000E00125002087
:1044800020666066284670BDF369FFEF00100140AA
:10449000903802400044004000480040004C00407A
:1044A000005000400014014000780040007C0040B3
:1044B0000048E8010024F4002DE9F0411E461746AB
:1044C00088460446069D07E0681C05D0FDF74EF8B7
:1044D000801BA8420BD855B12068C16938EA010099
:1044E00017D00020B842EFD00020BDE8F08120684E
:1044F000016821F4D07101602068816821F0010118
:10450000816020206067A067002084F8700003208D
:10451000EBE70120E6E72DE9F041D0F89852D0F81A
:104520009022DAB101EB8103002600EB8303DC6902
:104530004CB1C1EBC10705EB87056D6CB4FBF5F71A
:1045400005FB174424B1C2F814620020BDE8F081D5
:10455000DE6100231A4600F080FCF6E70220F5E752
:1045600070B5D0F89042054600F088FBC4F80C0204
:10457000D5F8900248B1D5F89412D4F80402CA686C
:1045800004F503719047002070BD022070BD70B526
:1045900000260446812100F0B7FA002520460121BB
:1045A000E56200F0B1FA82212046C4F8585100F0CB
:1045B000ABFA2564D4F8900248B1D4F8940204F51B
:1045C000247440688047206801F072FB2560304603
:1045D00070BD10B5D0E9A44159B194F80002FF288C
:1045E00007D08B68214694F801229847FF2084F871
:1045F0000002002010BD00000A2101800048704721
:10460000740000204321018000487047C40000204E
:104610004321018000487047800000204321018031
:1046200000487047080100202DE9F04100260446AB
:10463000007C01254FF4007790B3402320460222EE
:10464000812100F067FB4023E56202222046012120
:1046500000F060FB082320460322C4F85851822151
:1046600000F058FB4FF40770256402F08BF9C4F892
:104670009002F8B10546D4F8940200688047002102
:10468000C5F81412C5F81812207CD5F8042298B188
:1046900040232046012100F049FB3046BDE8F0816F
:1046A000FFE702223B468121204600F033FB3B46D8
:1046B000E562CAE70126F0E73B46EAE710B5D0F825
:1046C000901269B1027C002AD1F8042205D040235F
:1046D000012100F02BFB002010BD4FF40073F7E721
:1046E000022010BD02460220002902D00020C2F89C
:1046F00094127047D0F89002C0F80412002070475E
:10470000D0F89002C0F81022C0F8081200207047BC
:104710002DE9FC41D0F89072054600200C468DF83A
:1047200000000646ADF80400087810F0600121D0C2
:1047300020293BD1E288AAB10006607807D5D5F8D8
:1047400094128B6839469847E288394626E087F804
:1047500000023946A07987F801022846E28800F075
:104760006AF828E0D5F89412002260788B68214618
:10477000984720E0607820B10A2809D00B2815D18D
:1047800010E095F87402032810D1022201A905E077
:1047900095F87402032809D101226946284600F0E1
:1047A00064F808E095F87402032804D021462846EE
:1047B00000F036F802263046BDE8FC8110B5D0F88E
:1047C0009012A1B1D1F814220AB1012010BD01222A
:1047D000C1F81422D1F810220263B1F8102293B26A
:1047E000D1F80822812100F038FB002010BD022002
:1047F00010BD10B5D0F88C2252689047002010BD33
:1048000013460A46002110B500F090FA002010BDB2
:1048100013460A46002110B500F01FFB002010BD12
:1048200010B58021044600F0FDFA2046BDE8104096
:10483000002100F0F7BA10B5C0F848210323C0F8F2
:104840006C321346C0F84C210A46002100F06EFA83
:10485000002010BD0521002310B51A46C0F86C12C7
:10486000194600F063FA002010BD10B5C2610223A2
:10487000C0F86C32134602620A46002100F0EDFADD
:10488000002010BD0421002310B51A46C0F86C1298
:10489000194600F0E2FA002010BDF8B50446488839
:1048A0000D46010A08294BD2DFE801F04A04091736
:1048B0004A4A4048D4F88812207C0A6832E0207CBA
:1048C00002260028D4F88C0205D0C16A68468847C1
:1048D0000146467041E0816AF8E7C0B206282FD24F
:1048E000DFE800F003080D12171CD4F88812207CB2
:1048F0004A6817E0D4F88812207C8A6812E0D4F85D
:104900008812207CCA680DE0D4F88812207C0A69DD
:1049100008E0D4F88812207C4A6903E0D4F88812B1
:10492000207C8A6969469047014616E0207C38B9A8
:10493000D4F88C02416B68468847F5E7207C20B1AB
:1049400029462046FFF76CFFF8BDD4F88C02016BB6
:1049500068468847014607204870BDF8000048B106
:10496000EA8852B1824200D902462046ADF80020C2
:10497000FFF77BFFE8880028E6D12046FFF782FF9B
:10498000F8BD002370B500281ED00025044602E0C3
:104990006D1C641CEDB22678002EF9D1022404EBC4
:1049A0004504148012780024CA545B1C0322CA54A4
:1049B0005B1C06E0CA545B1CDAB28C54521C401CCF
:1049C000D3B20278002AF5D170BD01004FF000008B
:1049D00004D0012901D0022901D002207047012012
:1049E0007047000004A00A46024910B5FFF7C9FF4E
:1049F000004810BD64D0002043444320436F6E66DE
:104A000069670000122008800048704720000020DD
:104A100004A00A46024910B5FFF7B3FF004810BDD5
:104A200064D0002043444320496E7465726661631C
:104A30006500000004200880004870471C0000202A
:104A400004A00A46024910B5FFF79BFF004810BDBD
:104A500064D0002053544D6963726F656C65637454
:104A6000726F6E696373000004A00A46024910B5B4
:104A7000FFF787FF004810BD64D0002053544D332A
:104A800032205669727475616C20436F6D506F727D
:104A90007400000010B51A2008800A480168001D43
:104AA0000468001D0068081809D007490822FEF7AD
:104AB0003EFC0549042220461031FEF738FC02482E
:104AC000801E10BD107AF01F3600002010B580B196
:104AD000D0F88C3213B10023C0F88C3209B1C0F881
:104AE0008812012180F87412027000F0CBF80020C7
:104AF00010BD022010BD10B5D0F89802FCF76AFE78
:104B0000BDE81040FFF761BF10B5D0F89802FCF780
:104B10003BFEBDE81040FFF758BF2DE9F0411746B6
:104B2000044651B1D4F88C0242691AB194F8740267
:104B3000032851D00220BDE8F081D4F86C32002562
:104B400004F11400022B03D0042B3AD0C3B33CE091
:104B5000D0E903639E4207D9F11AC1608AB239468F
:104B60002046FFF755FE12E08068B0FBF3F103FB2F
:104B7000110199B9984211D3D4F8701288420DD21C
:104B8000002220461146FFF743FEC4F8705200236E
:104B90001A461946204600F0C9F816E0D4F88C02EF
:104BA000C16829B194F87402032801D120468847CE
:104BB0008021204600F036F92046FFF74BFE04E046
:104BC000FFE78021204600F02DF994F878020128B3
:104BD00004D184F8785201E0204690470020AAE7EB
:104BE00070B51546044649B1D4F88C0282691AB1F1
:104BF00094F87402032830D0022070BDD4F86C12EF
:104C000004F5A070032902D005291ED027E0D0E9C1
:104C100003318B420BD95B1AC3600846834200D331
:104C2000034629469AB22046FFF7EAFD17E0D4F87A
:104C30008C02016929B194F87402032801D120463D
:104C400088472046FFF71EFE09E00020C4F86C02EA
:104C50000146204600F0E6F801E02046904700209B
:104C600070BD0020704710B5012180F87412D0F893
:104C70008C22017952689047002010BDD0F898022C
:104C8000FCF7D6BD10B50178012929D115490322B9
:104C9000C1F80004C0F89812134808600920486061
:104CA0000020C8600861C1E9062008624862C86245
:104CB000086348630846FDF7BFF808B1FCF7F3FA4C
:104CC00008484FF40071FCF71EFD064880220021C1
:104CD000FCF71DFD034801214FF4BA72FCF717FDE4
:104CE000002010BD60CC0020000004400A06D0F86F
:104CF000980201F07F01C1EBC10100EB810002D5F8
:104D000090F83E00704790F8FE0170470020704711
:104D10000020704710B51C46D0F898021346224672
:104D2000FCF78FFDBDE81040FFF74FBE10B5D0F87F
:104D30009802FCF7B6FDBDE81040FFF746BE70B51F
:104D40000022044640231146FFF7E4FF4026C4F842
:104D5000506101253346002220468021C4F8445189
:104D6000FFF7D8FF66620020A56184F87452C4F88A
:104D70006C026060C4F87C02D4F8900228B1D4F8C8
:104D80008C020021426820469047002070BD90F8B8
:104D9000751280F874120020704710B590F87412E4
:104DA000032904D1D0F88C12C96901B188470020C9
:104DB00010BD01740020704710B5D0F89802FDF7BF
:104DC0001BF9BDE81040FFF700BE70B5044600F5C2
:104DD0002070054600F04AF80120C4F86C02B4F8CF
:104DE0008602C4F8700294F8802212F01F000AD0E4
:104DF00001280DD0022810D002F08001204600F0DA
:104E000011F8002070BD2946204600F09EF8F8E712
:104E10002946204600F0CAF9F3E72946204600F06B
:104E20001DF9EEE710B5D0F89802FCF75EFDBDE87D
:104E30001040FFF7CABD10B5D0F89802FDF7F7F89B
:104E4000BDE81040FFF7C1BD90F8741280F87512EC
:104E5000042180F874120020704710B5D0F8980231
:104E6000FCF77DFDBDE81040FFF7AFBD0A7802708A
:104E70004A784270CB788A7802EB032242804B79E1
:104E80000A7902EB032282808A79C97902EB012137
:104E9000C18070470246002011B1C2F88C127047E1
:104EA0000220704710B5D0F88C2202241AB1126883
:104EB000904700B90024204610BD000070B51F4D7A
:104EC0000E46897804460129297031D894F8740275
:104ED00002280BD003280FD031462046FFF7A0FC54
:104EE00029782046BDE87040FFF783BCD9B16160E6
:104EF000032084F8740209E071B16068884212D01E
:104F0000C1B22046FFF775FC297861602046FFF7A3
:104F1000C9FF02280CD006E0022084F87402204663
:104F20006160FFF766FC2046BDE87040FFF7AABC51
:104F300031462046BDE87040FFF772BC700000208B
:104F400010B5FFF778FF002010BD2DE9F0410A7879
:104F5000002712F0600208D0202A01D0402A70D128
:104F6000D0F88C22926890476DE04A7800230126A1
:104F70000A2A66D2DFE802F0405D655765080565DC
:104F80002C29FFF78AFC5EE004468888D8B9C888D7
:104F9000C8B94888802816D200F07F0594F87402BA
:104FA000032810D02946204684F87652FFF704FFE4
:104FB0002046FFF767FC1DB1022084F8740242E02E
:104FC00084F874623FE020463BE0FFF777FF3AE069
:104FD000CA88012A35D190F87422012A04D0022A05
:104FE00002D0032A2DD104E00122836000F10801E0
:104FF00016E00122011D13E090F87422012A03D06B
:10500000022A01D0032A1CD1CA88022A19D1C660FB
:10501000D0F87C1209B10321C160022200F10C0119
:10502000FFF723FC0FE0498801290CD1C0F87C620E
:1050300011E090F87422012A08D0022A06D0032A2F
:1050400004D0FFF7EDFB3846BDE8F081498801291F
:10505000F9D1C0F87C32FFF715FCF4E70A462DE9D8
:10506000F041137800270979044613F060000AD054
:10507000202801D0402850D1D4F88C0211468368F2
:10508000204698478FE0C3F34110012806D050789E
:10509000D0B301282AD003283FD107E0D4F88C02EE
:1050A000114683682046BDE8F041184794F8740221
:1050B000022802D0032872D10AE071B380296ED091
:1050C0002046FFF7AFFE80212046FFF7ABFE6AE0E7
:1050D000508838B931B1802904D0D08810B9204621
:1050E000FFF7A0FE2046FFF7CDFB5CE094F87402CA
:1050F0000228E2D0032852D1508898BB4806F1D04C
:105100002046FFF7F8FCEDE7FFE794F8740200266D
:10511000022803D0032842D112E040E009B18029DF
:105120003DD1080601F07F0000EB800004EB800118
:1051300001D5143101E001F5A07102220E602AE0D0
:10514000080601F00F0000EB800004EB80000AD598
:10515000806920B301F07F0000EB800004EB800544
:1051600014350BE01FE0D0F84401C0B101F07F001E
:1051700000EB800004EB800505F5A07541B18029A6
:1051800006D02046FFF7B2FD10B10120286000E0F4
:105190002E60022229462046FFF767FB03E01146F6
:1051A0002046FFF73DFB3846BDE8F08170B5054667
:1051B00008780C4610F0600203D0202A01D0402A63
:1051C00016D195F87422012A03D0022A01D0032AAD
:1051D0000ED1207901280BD8D5F88C028268284698
:1051E0009047E188014306D12846FFF74BFB02E0D8
:1051F0002846FFF715FB002070BD000070B50A7847
:1052000001234E7802F00F051B4CAB40D0F81C5820
:10521000012E17D045EA0343C0F81C3800EB4210BA
:10522000D0F8002B12040BD4D0F8002B0B89C978CE
:10523000C3F30A031A4344EA81410A43C0F8002B2E
:10524000002070BD9BB21D43C0F81C5800EB4210FB
:10525000D0F800391B04F3D4D0F800390D89C9788F
:10526000C5F30A0589042B4341EA82510B432343CA
:10527000C0F80039E4E7000000800010D0F8001901
:105280006FF30A01C0F80019D0F80818C1F3410102
:10529000022905D1D0F8001941F00301C0F8001926
:1052A000D0F8041841F48071C0F804180020704749
:1052B00070B5044634490698049E0D9D012817D008
:1052C000032826D0E06840F04000E060204600F06F
:1052D00061F8A16B41F48031A163012E07D1A1686F
:1052E00041F00601A160A16841F02001A16070BDFC
:1052F000A06B20F48030A063E0680840E060E068C4
:1053000020F44010E06039E0E06840F48010E06094
:1053100036E0A06B20F48030A063E0680840E060D5
:10532000E06820F44010E060E06820F01000E060E9
:10533000A06B40F40000A063144900200A6842F00A
:1053400004020A60124A04E0401C904201D9012084
:1053500070BD0B689B07F7D50C480A21183801600F
:105360000A4A0C3A116840F6137319431160016838
:1053700041F0010101600220FCF700F8012DC3D0CB
:10538000204600F007F8A8E7BFFFBDFF187C0140EA
:10539000400D03000B4A0021491C91420AD80369C1
:1053A000002BF9DA0369002143F001030361491C72
:1053B000914201D9032070470369DB07F7D1002030
:1053C00070470000400D030070B50B7801244E7843
:1053D00003F00F0504FA05F2D0F83C58012E17D05F
:1053E00025EA0242C0F83C28D0F81C28097801F0D0
:1053F0000F018C4022EA0441C0F81C1800EB431056
:10540000D0F8001B0E4A1140C0F8001B002070BDF0
:1054100092B29543C0F83C58D0F81C28097801F0A6
:105420000F018C40A1B28A43C0F81C2800EB431046
:10543000D0F80019034A1140C0F80019E6E700004F
:105440000078F3EF007833EC10B5D0F8041821F0B1
:105450000201C0F804180320FBF790FF002010BDE4
:1054600010B5D0F8041841F00201C0F80418032068
:10547000FBF784FF002010BD2DE9F04F0D460446D8
:105480000027DDE90B1BDDF840A03846DDF824904D
:105490003E4604EB8002C2F80461401C0F28F8D39A
:1054A0002046A06BBAF1000F12D040F40012204643
:1054B000A263C0F8006ED0F80028C0F800280129C7
:1054C0002FD003292DD0D0F8001841F003010EE0B1
:1054D00020F40012A263206840F04002226020689D
:1054E00040F0800220462260E3E741F00101C0F86D
:1054F0000018102100F08CFA00B10127204600F0BE
:1055000077FA00B10127C4F81068C4F81468C4F829
:105510001C6800204FF000634FF67F324FF0904C34
:1055200019E0D0F80018002BE1D0DEE704EB4011C1
:10553000D1F80089B8F1000F06DA10B1C1F800C93E
:1055400004E0C4F8003901E0C1F80069C1F810694D
:10555000C1F80829401C8542E8D8002014E004EB7B
:105560004011D1F8008BB8F1000F06DA10B1C1F884
:1055700000CB04E0C4F8003B01E0C1F8006BC1F8C7
:10558000106BC1F8082B401C8542E8D8D4F81008ED
:1055900020F48071C4F81018B9F1010F08D1144932
:1055A000C4F83018D4F8300812490843C4F8300859
:1055B000A6616FF080406061B9F1000F03D1A0696E
:1055C00040F01000A061A0690B490843A061BBF145
:1055D000000F03D0A06940F00800A061BAF1010FEC
:1055E00003D1A06905490843A0613846BDE8F08FA2
:1055F000000180000300010000383C8004000040EE
:10560000816821F0010181600020704770B50D783C
:105610004E78EBB23F4C012E00EB43131FD0D3F872
:10562000100B6FF31200C3F8100BD3F8100B2040CF
:10563000C3F8100B486908B188684861D3F8100BAB
:1056400040F40020C3F8100BD3F8100B8C68C4F39F
:1056500012042043C3F8100B012A4ED051E04E69CA
:10566000002ED3F8106932D06FF31206C3F8106918
:10567000D3F810692640C3F810694E698C68A642B9
:1056800000D94C61D3F8104944F40024C3F8104900
:10569000D3F810494E69C6F312063443C3F81049D3
:1056A000012A22D04A694AB1D0F83428097801F099
:1056B0000F03012199400A43C0F8342800EB45103C
:1056C000D0F8001941F00441C0F800191FE026404D
:1056D000C3F81069D3F8104944F40024C3F8104902
:1056E000D3F810496FF31204D8E709690029E5D00F
:1056F00000EB4512C2F81419E0E7C86808B1C3F816
:10570000140BD3F8000B40F00440C3F8000B00204A
:1057100070BD0000FFFF07E010B5036C134CA342FF
:1057200003D9D0F8003B002B1EDB0023C0F8103B50
:10573000D0F8103B43F40023C0F8103BD0F8103BE6
:1057400043F01803C0F8103BD0F8103B43F0C043BF
:10575000C0F8103B012907D1C0F8142BD0F8001B6A
:1057600041F08021C0F8001B002010BD0A30544FCA
:105770000B784A78012A00EB43100BD0D0F8002BAD
:1057800022F40012C0F8002BC978032914D0022992
:1057900012D017E0D0F8002922F40012C0F8002936
:1057A000C978032901D002290CD1D0F8001941F0A1
:1057B0008051C0F8001905E0D0F8001B41F080517D
:1057C000C0F8001B002070470A784B78D1B2012B3B
:1057D00000EB411012D0D0F8001B002906DB2AB1E3
:1057E000D0F8001B21F08041C0F8001BD0F8001B4E
:1057F00041F40011C0F8001B00207047D0F80019D8
:10580000002906DB2AB1D0F8001921F08041C0F848
:105810000019D0F8001941F40011C0F80019EBE7A5
:10582000F8B50C786FF060474E78E3B26C4D012EFE
:1058300000EB431326D0D3F8104B6FF31204C3F8D8
:10584000104BD3F8104B2C40C3F8104B4D69002D72
:1058500076D08C6825446D1EB5FBF4F4D3F8105B4C
:10586000A4B207EAC4463543C3F8105BD3F8105B13
:105870008E686643C6F312042543C3F8105B012A01
:105880007ED095E04E69002ED3F8106921D06FF3D9
:105890001206C3F81069D3F810692E40C3F81069D6
:1058A0004E698D682E44761EB6FBF5F5D3F8106967
:1058B00007EAC5453543C3F81059D3F810594E6966
:1058C000C6F312063543C3F81059CD78012D0ED01A
:1058D00019E02E40C3F81069D3F8105945F400259B
:1058E000C3F81059D3F810596FF3120509E0D3F833
:1058F000105925F0C045C3F81059D3F8105945F098
:105900000055C3F81059012A12D0CB78012B18D0BA
:105910004B692BB3D0F834380D7805F00F0601250C
:10592000B5402B43C0F83438CB78012B09D017E0B1
:105930000B69002BF8D000EB4415C5F81439F3E7D8
:1059400023E0D0F80838DB0500EB4413D3F8005906
:1059500002D445F0005501E045F08055C3F80059E8
:1059600000EB4413D3F8004944F00444C3F8004961
:10597000CB78012B32D100928A8A93B20A7800E068
:1059800012E0C96800F03EF928E0D3F8104B8D68AA
:10599000C5F312052C43C3F8104BD3F8104B44F455
:1059A0000024C3F8104B6AE7CA680AB1C3F8142B85
:1059B000C97801290CD1D0F80808C005D3F8000B2C
:1059C00002D440F0005001E040F08050C3F8000BDA
:1059D000D3F8000B40F00440C3F8000B0020F8BDE2
:1059E000FFFF07E0816841F00101816000207047FE
:1059F000002110220261054A491C914201D903206D
:105A000070470369DB06F7D400207047400D0300A0
:105A10000022202343EA811101610549521C8A4278
:105A200001D90320704703699B06F7D40020704713
:105A3000400D0300D0F8080810F0060004D002283A
:105A400003D0062801D0002070470320704740692A
:105A500000F001007047D0F81818D0F81C08084072
:105A600080B27047D0F81818D0F81C080840000C15
:105A7000704710B5D0F81038D0F8342801F00F0472
:105A800000EB4110E24002F00102D0F8080943EABD
:105A9000C212104010BD00EB4111D1F8081BD0F824
:105AA0001408084070474169806908407047D21C5B
:105AB000034603F5805308469208002110B502E022
:105AC0001C68491C10C09142FAD310BD10B5C268C1
:105AD00022F0C042C260012902D029B1012010BDCC
