:020000040800F2
:1000000060570020F5010008073200089D2A00080B
:10001000053200087B03000895510008000000002D
:10002000000000000000000000000000FD32000899
:100030002105000800000000BB320008FF32000864
:100040000F0200080F0200080F0200080F0200084C
:100050000F0200080F0200080F0200080F0200083C
:100060000F0200080F0200080F0200080F0200082C
:100070000F0200080F0200080F0200080F0200081C
:100080000F0200080F0200080F0200080F0200080C
:100090000F0200080F0200080F0200080F020008FC
:1000A0000F020008113400080F0200080F020008B8
:1000B0000F0200080F0200080F0200080F020008DC
:1000C0000F0200080F0200080F0200080F020008CC
:1000D0000F0200080F0200080F0200080F020008BC
:1000E0000F0200080F0200080F0200080F020008AC
:1000F0000F0200080F0200080F0200080F0200089C
:100100000F0200080F0200080F0200080F0200088B
:100110000F0200080F0200080F0200080F0200087B
:100120000F0200082D0400080F0200080F0200084B
:10013000390400080000000000000000000000007A
:100140000000000000000000000000000F02000896
:100150000F0200084504000851040008B93A0008DD
:100160000F0200080F0200080F0200080F0200082B
:100170000F02000829320008000000000000000003
:100180000F0200080F0200080F0200080F0200080B
:100190000F0200080F020008000000000F02000814
:1001A0000000000000000000000000000F02000836
:1001B0000F0200080F02000800000000000000000D
:1001C000000000000000000000000000000000002F
:1001D0000000000000000000000000000F02000806
:1001E000DFF80CD000F08CF80048004725520008DA
:1001F000605700200648804706480047FEE7FEE7B4
:10020000FEE7FEE7FEE7FEE7FEE7FEE7FEE7FEE7C6
:10021000BD330008E10100082DE9F05F054600202C
:1002200092469B4688460646814640241BE0284667
:1002300041464746224600F053F853465A46C01AF4
:10024000914110D311461846224600F03AF82D1A73
:1002500067EB01084F4622460120002100F031F8EB
:1002600017EB00094E41201EA4F10104DFDC4846D3
:1002700031462A464346BDE8F09F40EA01039B070A
:1002800003D009E008C9121F08C0042AFAD203E00B
:1002900011F8013B00F8013B521EF9D27047D2B26F
:1002A00001E000F8012B491EFBD270470022F6E75F
:1002B00010B513460A4604461946FFF7F0FF2046DC
:1002C00010BD202A04DB203A00FA02F1002070471A
:1002D0009140C2F1200320FA03F319439040704784
:1002E000202A04DB203A21FA02F00021704721FA8B
:1002F00002F3D040C2F120029140084319467047F2
:10030000064C074D06E0E06840F0010394E8070062
:1003100098471034AC42F6D3FFF766FF90540008BC
:10032000B054000870B58C1810F8015B15F0070385
:1003300001D110F8013B2A1106D110F8012B03E07E
:1003400010F8016B01F8016B5B1EF9D12B0705D486
:100350000023521E0DD401F8013BFAE710F8013BCF
:10036000CB1A921C03E013F8015B01F8015B521EEB
:10037000F9D5A142D8D3002070BDFEE70020704718
:100380000020704705490022054810B503F0D4FC51
:100390000449034803F0CAFC002010BD2047002098
:1003A00084360020203F002070B50D4604460146EB
:1003B000114803F0BBFC104803F09CFC002016E041
:1003C0000E4A215CD668936A9955D168491CD16060
:1003D0009368994201D3C91AD160002302EB8301CB
:1003E0005B1C8E69761C8E61022BF7DB401C296832
:1003F0008142E5D8002070BD843600209C34002066
:100400000A46094910B5D1F89012D1F8141209B171
:10041000012010BD0146044803F08EFCBDE81040E9
:10042000014803F0E7BC000084360020014800F0DA
:1004300079B80000C4350020014800F073B800000E
:1004400004350020014800F06DB80000643500203C
:10045000104910B5086820F0010008600E4A2023FA
:1004600092F85C40906DA340836092F85C3010225B
:100470009A4082600948026822F08002026008689F
:1004800020F0010008600648016821F001010160C8
:1004900010BD0000B864024024360020081401405A
:1004A0009C34002001681823CAB2103AB2FBF3F260
:1004B000054B6FF30901032A9B5CC36500D9091D35
:1004C000816508467047000070540008014610B569
:1004D00000208B694FF0C0748A6A53B1B3F5005F96
:1004E00015D072B1012A0CD0022A0AD0032A09D1F0
:1004F00004E01AB1012A06D0022A03D1C96AC9014F
:1005000000D5012010BDC96AA142FAD010BD002A51
:10051000F7D0012AF2D0022AF3D0032AF3D010BD7B
:10052000704770472DE9F843044665484FF00009CD
:10053000CDF800904FF41651A56D0068B0FBF1F7AF
:100540002E68082194F85C2001FA02F030420FD0A6
:100550002068026852070BD5026822F0040202608C
:1005600094F85C008140A960606D40F00100606516
:1005700094F85C104FF0010808FA01F0304208D0FE
:1005800021684969090604D5A860606D40F0020041
:10059000606594F85C1004208840304208D02168DF
:1005A0000968890704D5A860606D40F004006065A3
:1005B00094F85C1010208840304218D021680968F7
:1005C000090714D5A86020680168490304D50068AC
:1005D000000308D5A16C07E00168C90503D40168D0
:1005E00021F008010160216C09B12046884794F888
:1005F0005C1020208840304231D021680968C9064B
:100600002DD5A86094F8350005282068016806D02B
:10061000490347D5006800031DD4616C1CE021F03C
:10062000160101602068416921F080014161206C60
:1006300008B9A06C20B12068016821F008010160B0
:1006400094F85C103F208840A86084F8349084F8C7
:100650003580216D1FE0E16B09B120468847606D50
:1006600000282BD0606DC00714D0052084F8350019
:100670002068016821F0010101600098401C009091
:10068000B84203D820680068C007F6D184F83490D7
:1006900084F83580E16C002910D001B02046BDE817
:1006A000F04308470168C905D5D4016821F010015D
:1006B000016084F8349084F83580CCE7BDE8F88395
:1006C000540000202DE9F041044600F05DF9054694
:1006D0005CB1002684F83460022084F8350020687C
:1006E000016821F0010101600DE00120BDE8F08109
:1006F00000F04AF9401B052805D920206065032039
:1007000084F83500F2E720680068C007F0D121685E
:100710000A6820480240D4E901031843D4E90335AC
:100720002B43184363691843A3691843E3691843CB
:10073000236A18431043626A042A03D1D4E90B23C5
:100740001A4310430860206840690127656A20F059
:10075000070128460D4304280CD1A06A0543E06A2E
:1007600040B12046FFF7B2FE20B14020606584F81A
:100770003570BAE7206845612046FFF793FE94F88C
:100780005C203F2191408160666584F835700020CF
:10079000ACE700003F8010E070B5044600F0F4F8CC
:1007A0000546601C02D004480078044400F0ECF8D0
:1007B000401BA042FAD370BD480000202DE9F84F3D
:1007C000DFF88C9100224FF00F0809F1040A0AF1BA
:1007D000040B0BF1040E0B68012696403340B34224
:1007E00071D14C68022C01D0122C11D1D40800EB2D
:1007F00084073D6A5407E40E08FA04FC25EA0C0558
:10080000D1F810C00CFA04FC4CEA050CC7F820C063
:100810000768540091F804C00325A5400CF0030CB0
:10082000AF430CFA04FC4CEA070CC0F800C04F6858
:10083000012F05D0022F03D0112F01D0122F11D17B
:100840008768D1F80CC0AF430CFA04FC4CEA070CE3
:10085000C0F808C04768B7430E79C6F30016964043
:100860003E434660C668AE438D68A5403543C560CB
:100870004C68E40065D5374C256845F48045256013
:10088000246822F0030504F480440094324C2E19AD
:10089000D6F808789407250F08FA05F4A7432F4CDB
:1008A000A04201D1002424E02D4CA04201D101241A
:1008B0001FE02C4CA04201D102241AE02A4CA04295
:1008C00002D1032415E03CE0284CA04201D10424CD
:1008D0000FE0274CA04201D105240AE0254CA0429C
:1008E00001D1062405E0244CA04201D1072400E0F8
:1008F0000824AC403C43C6F80848D9F800404D46AF
:100900004E689C43F60300D51C432C60DAF8004087
:1009100055464E689C43B60300D51C432C60DBF85B
:1009200000405D464E689C43F60200D51C432C6097
:10093000DEF8004075464E689C43B60200D51C4365
:100940002C60521C102AFFF446AFBDE8F88F00005F
:10095000003C0140443802400030014000000240A9
:100960000004024000080240000C02400010024057
:100970000014024000180240001C02400AB18161CC
:1009800070470904FBE700000148806870470000D9
:100990004800002002488168027811448160704755
:1009A00048000020094810B5016841F40071016059
:1009B000016841F480710160032000F087F8002095
:1009C00000F006F800F03EF8002010BD003C0240A8
:1009D00000B500220146192087B000F057F8192011
:1009E00000F048F81348016841F001010160006817
:1009F00005A900F001000690684601F03DF901F0FC
:100A000071F90D4940000D4AB0FBF1F10C4802604C
:100A100040F2E732491E41600021C0E903218160B4
:100A200001F0E8FC10B1012007B000BD044801F05E
:100A3000FDFCF9E74438024040420F00000001404D
:100A4000204F00200A4808B5016841F0805101603C
:100A5000006800F0805000900548001D016841F4D6
:100A600080410160006800F48040009008BD0000F3
:100A700040380240012100F01F02914040098000EF
:100A800000F1E020C0F80011704700000E4BF0B4F8
:100A90001B68C3F30223C3F10704042C00D9042408
:100AA0001D1D072D01D2002300E0DB1E012606FAE2
:100AB00004F56D1E0D409D409E40761E164045EA91
:100AC0000601F0BC02F0A0BB0CED00E0064A00F00D
:100AD000070110684FF6FF03184040EA0120034960
:100AE00008431060704700000CED00E00000FA05BC
:100AF00001680122C0F8F823002280F8F0238869F9
:100B000040F000608861486D024A1043486500204B
:100B10007047000003000010704700684162002029
:100B20007047F0B50368586A39B19C6A4FF4827512
:100B300000EB144400204E1E0AE040EA0240986296
:100B40000FE005EB8007DF59401CC0B204EB1744EF
:100B5000B042F6D344EA02404FF4807202EB8101C6
:100B600058500020F0BDD0F8FC0303F08BBBC1EB64
:100B7000C10200EB8202D0F8FC03926C03F0E1BAF0
:100B8000C1EBC10200EB8202D0F8FC03D2F80822CC
:100B900003F03ABBD0F8FC0303F076BB70B5044613
:100BA0004FF0010201F00F004FF000050B06C0EB03
:100BB000C00104EB810103D581F83D203C3103E005
:100BC00081F8FD5101F5FE71087094F8BC0301280D
:100BD00008D084F8BC23206803F034FF002084F898
:100BE000BC5370BD022070BD70B5044601F00F000B
:100BF0006268904201D9012070BD0B064FF00102DE
:100C000001F00F014FF00005C1EBC10104EB8101C0
:100C100003D581F83D203C3103E081F8FD5101F519
:100C2000FE718D70087094F8BC03012808D084F818
:100C3000BC23206804F0C3F8002084F8BC5370BDC6
:100C4000022070BD01F00F01C1EBC10100EB81007A
:100C5000B0F8140280B270472DE9F04104464FF01D
:100C6000010601F00F004FF000050F06C0EBC001B8
:100C700004EB810103D581F83D603C3103E081F84C
:100C8000FD5101F5FE7108708A60CB704A7802B19F
:100C9000C880022B00D10D7194F8BC03012809D043
:100CA00084F8BC63206803F0E7FD284684F8BC5351
:100CB000BDE8F0810220FBE770B501F00F040D469E
:100CC000C4EBC40100EB8101C1F810320023C1F86C
:100CD0000822C1F8143281F8FD3181F8FC4101F598
:100CE000FE710369012B00D10A612A07027C0068AA
:100CF00003D004F0BDF8002070BD03F0BFFFFAE799
:100D000070B504460D4601F00F006168884201D9B4
:100D1000012070BD29064FF000064FF0010207D5F3
:100D2000C0EBC00104EB810181F83D203C3107E0BC
:100D3000C5EBC50104EB810181F8FD6101F5FE7190
:100D40008A70087094F8BC03012807D084F8BC238B
:100D5000206804F060F8280702D007E0022070BD88
:100D6000217C04F57072206804F00AF8002084F8F1
:100D7000BC6370BD70B501F00F040D46C4EBC40137
:100D800000EB81010B6500238A644B65012381F828
:100D90003D3001F83C4F0369012B00D10A612A075D
:100DA000027C006803D004F063F8002070BD03F0FB
:100DB00065FFFAE72DE9FC5F044600680026019014
:100DC0000546D0F8409004F06CF900287ED12068E8
:100DD00004F093F9002879D0206804F08EF9800798
:100DE00004D52068416901F002014161206804F0E6
:100DF00084F901034FF0010B04F57070009066D583
:100E0000206804F059F94FF4004A80467FE05FEA19
:100E1000C87079D02068F1B204F067F90746C007BE
:100E20003ED005EB4611C1F808BBF84A914508D9F8
:100E3000206901281AD1D5F8080B000404D5C1F89F
:100E400008AB2069012811D1C6EBC600D1F8103BD0
:100E500004EB8000D0F80422C3F31203D31AC0F8C5
:100E60001432D0F808321A44C0F80822E84A9145F2
:100E700006D1D5F8080B000402D5C1F808AB03E091
:100E80002046F1B2FFF77CFE2069012808D13EB967
:100E9000D4F8100220B920680121009A03F070FFF5
:100EA000380723D5DA49894507D1D5F8080B00045E
:100EB00003D505EB4611C1F808ABD44989450DD9D6
:100EC000206901280AD1D5F8080B01E058E222E098
:100ED000000403D505EB4611C1F808AB204600F02D
:100EE00031FB05EB46110820C1F8080BF80604D5C4
:100EF00005EB46111020C1F8080BB80604D505EB28
:100F000046112020C1F8080B761C4FEA5808B8F1AA
:100F1000000F7FF47CAF206804F0EFF840034FF03F
:100F200040095DD5206804F0C0F80026804654E0F2
:100F30005FEAC8704ED02068F1B204F0C4F80746EA
:100F4000C00726D006F00F020BFA02F0D5F83428BD
:100F50008243C5F8342805EB4610C0F808B920696B
:100F6000012807D1C6EBC60004EB8000D0E91121AF
:100F7000114481642046F1B2FFF7F9FD2069012890
:100F800007D136B9206D20B920680121009A03F0FD
:100F9000F7FE380704D505EB46110820C1F808090B
:100FA000F80604D505EB46111020C1F808097806AB
:100FB00003D505EB4611C1F80899B80704D505EB30
:100FC00046110220C1F80809380603D531462046EB
:100FD00002F030F9761C4FEA5808B8F1000FA7D19B
:100FE000206804F08AF8002811DAD5F8040820F007
:100FF0000100C5F8040894F8F00301283BD020460E
:1010000000F084FA2068416901F0004141612068E4
:1010100004F073F800050BD5D5F80808C00702D016
:10102000204600F0ABFA2068416901F4006141619B
:10103000206804F062F800010AD52068416901F0D7
:101040000061416194F8F003E8B1204600F096FA9F
:10105000206804F052F8C00469D5D5F8040820F0DF
:101060000100C5F804082068102103F0F7FF0021F3
:101070004FF67F3227E0002084F8F0030146204637
:10108000FFF74AFDBEE784F8F0B32068406D012108
:10109000C0F38300C4F8F4032046FFF73DFDD7E713
:1010A00005EB4110C0F80829D0F8003923F40013EB
:1010B000C0F80039C0F8082BD0F8003B23F4001327
:1010C000C0F8003B491C60688842E9D8D5F81C0884
:1010D00040F00110C5F81C08206B60B1D5F88408F9
:1010E00040F00B00C5F88408D5F8440840F00B0028
:1010F000C5F844080BE0D5F8140840F02B00C5F8FB
:101100001408D5F8100840F00B00C5F81008D5F801
:10111000000820F4FE60C5F80008217C2068009AD1
:1011200003F02EFE2068416901F48051416120687E
:1011300003F0E3FF800467D5206803F0DDFB20683F
:10114000C16821F47051C160206803F099FF78B143
:10115000C4F814900320E06000F0AEFD2D492E4A43
:10116000014491420AD22068C16841F470517DE087
:101170000020E0604FF40070606136E02749284AA3
:101180000144914204D22068C16841F460516DE08D
:101190002449254A0144914204D22068C16841F49F
:1011A000505163E02149224A0144914204D220680F
:1011B000C16841F4405159E01E491F4A014491421F
:1011C00004D22068C16841F430514FE01B491C4AE9
:1011D0000144914204D22068C16841F4205145E0A5
:1011E0001849194A0144914204D22068C16841F467
:1011F00010513BE01549164A014491422AD2206819
:10120000C16841F4005131E039E000000A30544F28
:101210000A31544F405327FF00350C00401E1BFF7E
:1012200040420F0000DC0BFF804F1200808CF9FE63
:1012300020D6130060B6E5FE60E3160000D3CEFEB4
:1012400040771B00C05BB3FEC091210000CA91FE35
:10125000207538004B4908444B4988422068C168D2
:1012600002D241F4E05101E041F4C051C160204696
:1012700000F03CF92068416901F4005141612068A7
:1012800003F03BFFC00635D52068816921F01001CD
:1012900081610198076A07F00F00C0EBC00004EB02
:1012A0008005C7F34340022805F5FE7502D00628E5
:1012B00011D01AE047F6F070074216D0C7F30A12B1
:1012C000E9680198174603F01CFFE8683844E860B5
:1012D000A869384408E00822DDE9001003F011FF96
:1012E000A869C7F30A110844A8612068816941F020
:1012F00010018161206803F000FF000707D5204638
:1013000000F008F92068416901F008014161206896
:1013100003F0F3FEC00208D52046F1B200F036F823
:101320002068416901F480114161206803F0E5FE05
:10133000800208D52046F1B200F02CF820684169FF
:1013400001F400114161206803F0D7FE400007D589
:101350002046FFF708FC2068416901F080414161A7
:10136000206803F0CAFE40070AD520684568680770
:1013700002D52046FFF70EFC2068416829434160F2
:10138000BDE8FC9FE05459FEE09C4100D0F8FC030E
:1013900002F0D0BFD0F8FC0302F0CEBFF0B50400DD
:1013A0008BB004D094F8BD03002518B107E00120EC
:1013B0000BB0F0BD204684F8BC5300F057F8032072
:1013C00084F8BD03206803F053FC04F11001684663
:1013D00028220F46FEF751FF94E80F0003F0A6FA0B
:1013E0002068002103F09CFE00210126C1EBC10012
:1013F00004EB800080F83D6080F83C10A0F84210BB
:10140000491C80F83F50C9B245640F2985640565C1
:10141000ECD30021C1EBC10004EB800080F8FD514A
:1014200080F8FC11491C80F8FF51C9B2C0F8045281
:101430000F29C0F80852C0F81052EBD328223946C1
:101440006846FEF71AFF94E80F0003F053FB84F898
:10145000385084F8BD63606A012802D12046FFF746
:1014600047FB206803F03AFB0020A1E700B50068C5
:1014700087B01B49884231D14FF440400090022090
:10148000019000200290032003900C200490154846
:101490006946FFF793F91448016841F00041016083
:1014A000006800F0004005900F481438016841F0D2
:1014B00000510160016801F000510591016841F09F
:1014C0008041016000680022114600F080400590D4
:1014D0004D20FFF7DBFA4D20FFF7CCFA07B000BD37
:1014E00000000440000402404438024010B50446A5
:1014F000C068012100B90021D4F8FC0302F07BFF91
:10150000D4F8FC03BDE8104002F03BBFD0F8FC0368
:1015100002F05FBFD0F8FC0302F061BF10B50446D3
:1015200090F8BC0301280BD0012084F8BC0384F898
:101530003810206803F00BFE002084F8BC0310BDB7
:10154000022010BDD0F8FC2300F57071104602F0A7
:1015500065BF10B5044690F8BC0301280CD00120EB
:1015600084F8BC03206803F0ADFA206803F060FD46
:10157000002084F8BC0310BD022010BD10B5044645
:10158000D0F8FC0302F097FF2068D0F8001E41F06D
:101590000101C0F8001E206A002804D0024801683A
:1015A00041F00601016010BD10ED00E01848F8B5EB
:1015B000016841F0805101600068164D00F08050D4
:1015C0000090286840F480302860FFF7DDF94FF480
:1015D0007A76044604E0FFF7D7F9001BB0420FD833
:1015E0006868C003F7D5286840F400302860FFF72A
:1015F000CBF9044606E0FFF7C7F9001BB04201D95A
:101600000320F8BD68688003F5D50020F8BD000010
:1016100040380240007000400248016841F4807187
:101620000160704700700040F0B52F4E01462E4A11
:1016300000202B4B371F2B4C351DDFF8B0C0843AF0
:10164000B1F5002F4FF4801E0CD0714514D12968DC
:1016500011F4400111D0B1F5800F23D0B1F5000F86
:101660000AD108E0296811F4401106D0714519D05B
:10167000B1F5001F00D16046F0BD1068400210684F
:1016800000F03F0026D4B3FBF0F031683268C1F3BC
:101690000361C2F3881242432868B2FBF1F1C0F340
:1016A000042013E010684002106800F03F0014D4DA
:1016B000B3FBF0F039683A68C1F30361C2F38812F2
:1016C00042432868B2FBF1F100F01F00401CB1FB5F
:1016D000F0F0F0BDB4FBF0F0D7E7B4FBF0F0E9E7D1
:1016E0000024F40040787D01883802400080BB006F
:1016F0002DE9F84F044600780026DFF80CA43546A3
:10170000C0070ED0DAF8001021F40001CAF800106A
:10171000DAF80010E26A1143CAF80010E06A00B972
:1017200001262068F94F00030ED53868616B20F45C
:10173000401008433860606BB0F5801F01D010B1D5
:1017400002E0012600E001252068C0020ED53868BD
:10175000A16B20F4400008433860A06BB0F5800F07
:1017600001D010B102E0012600E0012520788006BA
:1017700066D5E5483830016841F080510160006865
:10178000DFF88C9300F080500090D9F8001041F4FD
:101790008071C9F80010FFF7F7F8804605E0FFF701
:1017A000F3F8A0EB080064287ED8D9F80000C00543
:1017B000F5D5DFF85893A9F11C09D9F8000010F409
:1017C00040702AD0218D01F44071814225D0D9F892
:1017D0000010D9F8002021F4407142F48032C9F899
:1017E0000020D9F8002022F48032C9F80020C9F87E
:1017F0000010D9F80000C0070FD0FFF7C5F88046E9
:1018000041F2883B05E0FFF7BFF8A0EB080159451E
:10181000CAD8D9F800008007F5D5A06AC0F3012125
:1018200003297DD0DAF8001021F4F811CAF800106D
:10183000D9F80010228DC2F30B021143C9F8001031
:101840002078C00607D5386820F080703860386886
:10185000216B0843386020884104AE4805D50168F3
:10186000E26D21F44031114301602188090405D55E
:101870000168226E21F44021114301602168C903EF
:1018800005D50168626E21F4401111430160217891
:10189000490605D50168E26B21F00301114301609F
:1018A0002178090607D500E008E10168226C21F0E3
:1018B0000C01114301602188C90505D50168626CDE
:1018C00021F03001114301602188890505D50168A7
:1018D000A26C21F0C001114301602188490505D5A2
:1018E0000168E26C21F4407111430160218809050F
:1018F00005D50168226D21F4406111430160218802
:10190000C90405D50168626D21F44051114301609D
:101910002188890407D50168A26D21F4404100E0C7
:1019200031E01143016021684FF00069890209D557
:101930000168626F21F0006111430160616F4945E8
:1019400000D101252168490305D50168E26E21F027
:101950004071114301602168090205D50168A26F39
:1019600021F08051114301602168490105D50168CA
:10197000E26F21F0005111430160DFF88C81A8F182
:10198000080876B909E0DAF80020634B22F4F8126F
:1019900018400243CAF800204AE72068B0F1007FEF
:1019A00061D1D8F8001021F08061C8F80010FEF76E
:1019B000EBFF064604E0FEF7E7FF801B64287DD8B6
:1019C000D8F800000001F6D420785449C0070CD0A4
:1019D000E06A50B908686268C0F30360920142EAA5
:1019E0000060227A40EA027008602068020303D592
:1019F000626BB2F5801F05D0C00215D5A06BB0F5A3
:101A0000800F11D108686268237BC0F302709201D5
:101A100042EA036242EA007008603868E26920F036
:101A20001F00521E104338602068800108D560688E
:101A3000227B800140EA0260227A40EA027008605C
:101A4000D8F8001041F08061C8F80010FEF79CFF44
:101A5000064604E0FEF798FF801B642867D8D8F894
:101A600000000001F6D555B3D8F80000454620F037
:101A70008050C8F80000FEF787FF064604E0FEF736
:101A800083FF801B642852D82868C0438000F6D5A5
:101A900020682349020301D5626B1AB1C00219D52F
:101AA000A06BB8B908682269C0F30140920142EA0C
:101AB0000040227D40EA0260086001E037E03DE03E
:101AC00038686FF0FF03226A20F4F85003EB02221B
:101AD00010433860206880020DD5606F48450AD1F8
:101AE00008682269238BC0F30360920142EA034233
:101AF00042EA00600860286840F080502860FEF7E5
:101B000043FF044616E00000083802408C380240CB
:101B10000070004090380240FFFCFF0F8438024004
:101B200088380240FEF730FF001B642802D90320EA
:101B3000BDE8F88F2868C0438000F3D40020F7E7A1
:101B40002DE9F04704000D4669D0DFF81C81D8F874
:101B5000000000F00F00A8420CD2D8F8001021F0CD
:101B60000F012943C8F80010D8F8000000F00F005A
:101B7000A84254D120683D4E810712D5400703D5B5
:101B8000306840F4E05030602078000703D53068BA
:101B900040F4604030603068A16820F0F0000843F5
:101BA00030602078C00729D03049606808390128A2
:101BB00010D00968022810D0890700292FDA31686F
:101BC00021F0030101433160FEF7DEFE074641F2DA
:101BD00088390CE009688903EFE78901EDE7FEF732
:101BE000D3FEC11B494502D90320BDE8F087306808
:101BF000616800F00C00B0EB810FF0D1D8F8001054
:101C0000404601F00F01A9420BD9016821F00F01F4
:101C100029430160006800F00F00A84201D00120B4
:101C2000E3E72078400705D53068E16820F4E0500C
:101C3000084330602078000706D53068216920F419
:101C4000604040EAC100306000F05CF83168084A4A
:101C5000C1F30311515CC840064908600020FEF73B
:101C6000B7FE0020C1E70000003C024008380240F7
:101C700078540008540000200F2202600C4A1368B8
:101C800003F003034360136803F0F00383601368F9
:101C900003F4E053C36012684FF4E05303EAD20246
:101CA00002610448006800F00F00086070470000FF
:101CB00008380240003C02400148006870470000BC
:101CC000540000200448054900680968044AC1F32B
:101CD0008221515CC84070475400002008380240FF
:101CE000885400080448054900680968044AC1F39B
:101CF0004231515CC840704754000020083802400F
:101D000088540008154810B5006810F00C011448FC
:101D100013D0144B04290FD008290ED10F4C241FC7
:101D2000216801F03F022168490207D52068C0F30D
:101D30008810A0FB030106E0184610BD2168C1F31E
:101D40008811A1FB00010023FEF766FA2168C1F3A8
:101D50000141491C4900B0FBF1F010BD08380240B8
:101D60000024F40040787D012DE9F84F04004FF085
:101D7000000877D02078DFF804A3AAF1040BC0078D
:101D8000ABF104054AD0DAF800105046C1F38101E6
:101D9000012908D00068C0F3810002280AD1DBF8CD
:101DA0000000400206D52868800337D56068002807
:101DB000DFD033E06068B0F5803F0BD010B1B0F5F4
:101DC000A02F11D0286820F480302860286820F4E3
:101DD000802002E0286840F480302860606888B184
:101DE000FEF7D2FD064609E0286840F4802028600E
:101DF000F0E7FEF7C9FD801B642873D828688003CC
:101E0000F7D50BE0FEF7C0FD064604E0FEF7BCFD8B
:101E1000801B6428F1D828688003F7D420788007D5
:101E200040D5DAF80010504611F00C0F08D00068C9
:101E3000C0F3810002280AD1DBF80000400206D47A
:101E40002868800717D5E06801280BD113E0E06807
:101E50000028286817D040F001002860FEF794FDA4
:101E6000064605E007E1FEF78FFD801B0228C4D877
:101E700028688007F7D52868216920F0F80040EA33
:101E8000C10028600EE020F001002860FEF77CFD14
:101E9000064604E0FEF778FD801B022822D8286859
:101EA0008007F7D42078000725D5744F60696C3718
:101EB000002838680FD040F001003860FEF764FD5C
:101EC000064604E0FEF760FD801B02280AD8386849
:101ED0008007F7D50FE020F001003860FEF754FDD1
:101EE000064605E082E0FEF74FFD801B02287DD804
:101EF00038688007F7D42078400769D5DFF87C91EF
:101F000009F13809D9F80000C0000CD4D9F8001044
:101F100041F08051C9F80010D9F800004FF00108D5
:101F200000F080500090564F3868C0050FD43868D4
:101F300040F480703860FEF727FD064604E0FEF7A7
:101F400023FD801B642851D83868C005F7D54B4F56
:101F5000A068683701280AD008B1052811D0386870
:101F600020F001003860386820F0040002E0386892
:101F700040F001003860A06898B1FEF705FD064604
:101F80000BE0386840F004003860F0E7FEF7FCFC36
:101F9000811B41F28830814265D838688007F5D5C9
:101FA0000DE0FEF7F1FC064606E0FEF7EDFC811BB6
:101FB00041F28830814256D838688007F5D4B8F1AC
:101FC000000F05D0D9F8001021F08051C9F8001099
:101FD000A069C8B3DAF80010C1F3810102294AD020
:101FE0000228286820F08070286000E03BE003D0E1
:101FF000FEF7CAFC044639E0FEF7C6FC064604E0DC
:10200000FEF7C2FC801B02282DD828688001F7D477
:10201000D4E907011B4A0843A16A490802EB0141C0
:10202000626A41EA8211084394F82C1040EA016088
:1020300040F00051CBF80010286840F08070286014
:10204000FEF7A2FC044605E013E0FEF79DFC001B32
:10205000022808D828688001F7D50AE0FEF794FC2A
:10206000001B022802D90320BDE8F88F28688001F0
:10207000F4D40020F8E70120F6E700000838024019
:10208000007000400000FFFF2DE9F0414FF0000517
:1020900004002E4604D094F87D00002718B107E014
:1020A0000120BDE8F081204684F87C7000F0D4F86F
:1020B000022084F87D00204601F000F9E06838B184
:1020C000012802D0022803D101E0102500E02025DC
:1020D000A06880B1012806D002284FF4006105D025
:1020E000032808D104E04FF4806604E00E4602E0C5
:1020F00045F001050E46544B534A20682033904268
:1021000001D0984202D15048001F00E04F480560BE
:10211000E06948B321680020914201D0994203D17F
:102120004FF40020FFF780FA484A2168121D9142BF
:1021300003D0464A2432914203D14FF48010FFF776
:1021400073FAE16900EB80000A2240004902B0FB0B
:10215000F1F0B0FBF2F3B0FBF2F1216202FB1300ED
:10216000082801D9491C216261684FF40070E9B365
:10217000022964D0E16B012900D0002021680A689F
:10218000334B1A400A60226B61681143D4E90D2376
:102190001A4311430143606A3143014320690143FB
:1021A00060690143208C41EA0051206802681143B4
:1021B0000160206841684EF20F029143416020683F
:1021C0004168A2691143D4E90A231A4311434160CB
:1021D000206881681F4A11408160216DA06C226CCB
:1021E0000143E06C521E1043014300E027E0606CA5
:1021F0006FF0FF0202EB002001432068836819435F
:1022000081602068C1684FF220031940C160D4E9A1
:1022100015100143E06D02EB0020B4F8602040EAA5
:10222000024001432068C2681143C160C4F8807055
:10223000012084F87D00002084F87C7031E7E16B98
:1022400001299AD09AE7000004580140005C01403F
:1022500010C005FF0080F8FF2DE9F04F4649044605
:1022600000680026454F87B0DFF8148188424FF49C
:1022700080694FF0020A4FF00A0B39D1D8F80000FC
:1022800038B93A6842F400023A603A6802F400024F
:102290000592401CC8F80000F0200090CDE901A68E
:1022A00038486946CDE9036BFEF788FA374D364862
:1022B00005F1080128604FF0C0606860402081E8A7
:1022C0004102400168618000A8614011E86140025C
:1022D0002862042068620320C5E90A0628462E63A6
:1022E000FEF7F0F908B1FEF71CF92567AC63E56667
:1022F00021492068203188423AD1D8F8000038B905
:102300003A6842F400023A603A6802F40002059228
:10231000401CC8F80000CDF800904F46CDE901A65A
:102320001B486946CDE9036BFEF748FA194D16487C
:10233000303028604FF0C060C5E901064FF40060FE
:10234000EE60C5E904708000A8614011E8614002B8
:102350002862042068620320C5E90A0628462E6325
:10236000FEF7B0F908B1FEF7DCF82567AC63E56667
:1023700007B0BDE8F08F0000045C01404438024023
:102380004400002000200240706402400435002018
:1023900000180240643500207047704730B590F84F
:1023A0003C20012A1FD0012280F83C2003685A6893
:1023B0009D680E4CA34202D00D4CA34203D122F4DF
:1023C00070044A68224322F070040A688968224334
:1023D0005A6025F08004214302689160002180F852
:1023E0003C10084630BD022030BD00000000014016
:1023F0000004014010B5040003D094F83D0010B172
:1024000007E0012010BD002084F83C00204600F0C9
:102410000CF8022084F83D002068211D00F0FEFF2A
:10242000012084F83D00002010BD70470168CA6893
:1024300042F00102CA600068016841F001010160D8
:1024400000207047704770B50446006801694FF07E
:102450000005C943890715D4C168C943890711D448
:10246000E91E0161012020772068806980072046ED
:1024700002D0FFF7E7FF04E000F02CF9204600F05F
:1024800021FA257720680169C943490717D4C16833
:10249000C943490713D46FF004010161022020777A
:1024A0002068806910F4407F204602D0FFF7CAFF01
:1024B00004E000F00FF9204600F004FA25772068C8
:1024C0000169C943090716D4C168C943090712D471
:1024D0006FF008010161042020772068C06980073F
:1024E000204602D0FFF7AEFF04E000F0F3F82046EC
:1024F00000F0E8F9257720680169C943C90617D4B7
:10250000C168C943C90613D46FF0100101610820E6
:1025100020772068C06910F4407F204602D0FFF782
:1025200091FF04E000F0D6F8204600F0CBF92577C3
:1025300020680169C943C90708D1C168C943C907EF
:1025400004D1891E0161204600F0BEF920680169AE
:102550006FF08005C943090607D4C168C94309065D
:1025600003D405612046FFF717FF20680169C943BE
:10257000C90507D4C168C943090603D405612046CB
:10258000FFF70AFF20680169C943490609D4C168F9
:10259000C943490605D46FF040010161204600F0AF
:1025A0009DF920680169C94389060BD4C168C943F4
:1025B000890607D46FF0200101612046BDE8704014
:1025C000FFF7EBBE70BD000030B587B004461421A4
:1025D0006846FDF76BFE21680023354A022401207E
:1025E000B1F1804F15D0334DA94224D1116841F08B
:1025F000020111601168009001F002012E48CDE93E
:1026000001430393CDE904416946FEF7D7F807B0CB
:1026100030BD116841F001011160116801F0010144
:10262000059148F202010091CDE90143CDE9033063
:1026300022486946E9E7224D2248A9420FD1116894
:1026400041F080011160116801F080010591C11411
:102650000091CDE90143CDE903346946D5E71A4D30
:10266000A94211D1106840F010001060106869464E
:1026700000F010000590602000900320CDE9014398
:10268000CDE903301148C0E7114DA942BFD111680F
:1026900041F080011160116801F080010591402135
:1026A00000910921CDE90143CDE903316946ACE749
:1026B00030380240000400400004024000000240A4
:1026C000000C0040001C024000400140001002408D
:1026D00000180040704770B5044690F83C000D4665
:1026E00001280ED0012684F83C60022084F83D00C9
:1026F0000C2A45D007DC5AB1042A1BD0082A78D10D
:102700002CE0022070BD102A4ED0142A71D15DE059
:10271000206800F0E7FE2068816941F008018161CE
:102720002068816921F004018161206881692A693A
:10273000114311E0206800F005FF2068816941F431
:10274000006181612068816921F480618161206874
:1027500081692A6941EA022181614AE0206800F02A
:1027600027FF2068C16941F00801C1612068C16983
:1027700021F00401C1612068C1692A69114311E097
:10278000206800F049FF2068C16941F40061C1611F
:102790002068C16921F48061C1612068C1692A692A
:1027A00041EA0221C16124E0206800F061FF206855
:1027B000416D41F0080141652068416D21F004013F
:1027C00041652068416D2A69114311E0206800F0DD
:1027D00077FF2068416D41F4006141652068416DDB
:1027E00021F4806141652068416D2A6941EA022136
:1027F000416584F83D60002084F83C0070BD10B550
:10280000040003D094F83D0010B107E0012010BD92
:10281000002084F83C00204600F00CF8022084F8E8
:102820003D002068211D00F0F9FD012084F83D00E5
:10283000002010BD08B500681D49B0F1804F0BD0D5
:102840001C4A904210D1086840F0020008600868F5
:1028500000F00200009008BD086840F00100086028
:10286000086800F00100F5E7134A904207D10868B4
:1028700040F008000860086800F00800EAE70F4A26
:10288000904209D10A48001D016841F4803101607D
:10289000006800F48030DDE7094A9042DBD1086827
:1028A00040F040000860086800F04000D2E70000F7
:1028B0004038024000040040000C0040004001404D
:1028C000001800407047000000680349884201D1A9
:1028D000FEF760B87047000000000140704710B577
:1028E000040003D094F8690010B107E0012010BD86
:1028F000002084F86800204600F026F8242084F8A0
:1029000069002068016821F001010160204600F0A3
:1029100085FF0128EBD0606A10B1204600F0FAFE76
:102920002068416821F4904141602068816821F06D
:102930002A0181602068016841F0010101602046A0
:10294000BDE8104000F04ABF2DE9F04186B00446D2
:1029500014216846FDF7AAFC484B03262168082786
:1029600047480025474A99424FF0020830D1444970
:1029700010310B6843F480130B60096801F4801177
:102980000591016841F004010160016801F0040152
:102990000591016841F008010160006802AB6946D9
:1029A00000F0080005909014CDE9000883E8E000ED
:1029B0001046FDF703FF0420694602ABCDE900088D
:1029C000314883E8E000FDF7F9FE06B0BDE8F0818C
:1029D0002E4B9942F9D12A4914310B6843F0200358
:1029E0000B60096801F020010591016841F00401C4
:1029F0000160006802AB694600F004000590C02049
:102A0000CDE9000883E8E0001046FDF7D7FE214E2F
:102A10004FF480681E4887053060C6E90175C6E935
:102A2000035875613046B561F56135627562FDF731
:102A300049FE08B1FDF775FD6666B463164E14488D
:102A40009030E6E80207402086E82101F560356114
:102A50007561B5611048F561083EFDF733FE08B1B8
:102A6000FDF75FFD0022266647201146B463FEF79E
:102A70000DF84720FDF7FEFFA7E7000000500040DB
:102A80003038024000080240000C024000140140AF
:102A900028640240C435002024360020FEE70000F0
:102AA0002DE9F04F87B014216846FDF7FFFBFE4883
:102AB000016841F010010160016801F01001059109
:102AC000016841F002010160016801F00201059115
:102AD000016841F040010160016801F04001059189
:102AE000016841F008010160016801F008010591E9
:102AF000016841F004010160016801F004010591E1
:102B0000016841F001010160016801F001010591D6
:102B1000016841F480710160016801F480710591E0
:102B2000016841F080010160016801F080010591B8
:102B3000016841F02001016000680022DFF86C9319
:102B4000182100F0200005904846FDF717FFD848EF
:102B500000224FF4E241FDF711FFD6480022482140
:102B6000FDF70CFFD44800224FF40261FDF706FF89
:102B7000D248002240F20C41FDF700FF0122D0486C
:102B8000D103FDF7FBFECF4800224FF49061FDF723
:102B9000F5FECB48002241F28C21FDF7EFFECA483A
:102BA000002241F20201FDF7E9FE002469461820E7
:102BB000009001274846CDE901740394FDF7FEFD1E
:102BC00002264FF009080420694602AACDE9000652
:102BD0000325484682E83001FDF7F0FD4FF683708B
:102BE0000294CDE900060C206946CDE90350484621
:102BF000FDF7E4FD4FF01209029728026946CDE97E
:102C000000090420CDE90350AF48FDF7D7FD30207F
:102C10004FF0050A02AA6946CDE90006AA4882E8F3
:102C20003004FDF7CBFD4FF4E2400090CDE9017494
:102C30009F4869460394FDF7C1FD4DF6B3700294B9
:102C4000CDE900060C206946CDE903509948FDF70F
:102C5000B5FD80200294CDE900060C206946CDE93F
:102C600003509948FDF7AAFD40200294CDE90006E3
:102C70000A206946CDE903509348FDF79FFDDFF830
:102C80004CB2B00369460294CDE9000B8848FDF7C9
:102C900095FD48200090CDE901748648694603946B
:102CA000FDF78CFD4FF402600090CDE9017482487D
:102CB00069460394FDF782FD6802694602AACDE9E0
:102CC00000067D4882E83001FDF778FDE8020294B5
:102CD000CDE900060A206946CDE903507948FDF7A1
:102CE0006DFD40F23F200294CDE900060C206946BC
:102CF000CDE903506E48FDF761FD40F20C400090B5
:102D0000CDE901746D4869460394FDF757FD300223
:102D10006946CDE9000B69480294FDF74FFD49F281
:102D20008C200090CDE90174654869460394FDF755
:102D300045FD02AA6148CDE90056694682E83004A3
:102D4000FDF73CFD4FF490600090CDE901745D48C3
:102D500069460394FDF732FD4FF23F000294CDE93E
:102D600000060C206946CDE903505948FDF726FDC1
:102D700068030294CDE9000608206946CDE90350B6
:102D80004F48FDF71BFD30026946CDE900044D4870
:102D90000294FDF713FDF0010297CDE9000904202C
:102DA0006946CDE903504748FDF708FDF001694643
:102DB000CDE9000B40480294FDF700FD302002975A
:102DC000CDE9000904206946CDE903503C48FDF7F0
:102DD000F5FC4FF470700294CDE9000608206946B6
:102DE000CDE903503A48FDF7E9FC70026946CDE9A8
:102DF000000537480294FDF7E1FC70026946CDE911
:102E000000042F480294FDF7D9FC13206946CDE950
:102E1000000529480294FDF7D1FC0C20694602AA5E
:102E2000CDE90006244882E83004FDF7C7FC042001
:102E3000694602AACDE90006234882E83001FDF781
:102E4000BDFCF0010297CDE9000904206946CDE9F7
:102E500003501B48FDF7B2FC3003694602AACDE9D6
:102E60000006144882E83001FDF7A8FC50206946AE
:102E7000CDE9000513480294FDF7A0FC0C20029454
:102E8000CDE9000607206946CDE903500D48FDF75E
:102E900095FC2020694602AACDE90006094882E88F
:102EA0003004FDF78BFC15E0303802400010024082
:102EB00000180240000C02400008024000200240BE
:102EC000001C0240000002400004024000001110FB
:102ED0000014024041F202000090CDE901740C4858
:102EE00069460394FDF76AFC4FF430506946CDE91A
:102EF000000B07480294FDF761FCB0026946CDE97A
:102F0000000404480294FDF759FC07B0BDE8F08FB7
:102F100000040240001402402DE9F0472548002437
:102F200023494FF0800A00F110024FF004080125F8
:102F30004FF00F0904634026C0E90014C0E90DA456
:102F4000C46349148460202782E83200C4604AF6D2
:102F50004441446284620664C462C161C0E9117480
:102F6000C4640465543080E850035438FFF78CF88B
:102F700010480F498430203101600321C0E90C4A18
:102F8000C0E90E450461C0E90115C4604462846271
:102F900006648561C462C0E91174C4640465543078
:102FA00080E85003BDE8F0475438FFF76DB80000E3
:102FB000045C01407401002010B588B01C216846F3
:102FC000FDF774F90D4800240B49C0E90014846032
:102FD000C46004618461FFF712FC60206946CDE99A
:102FE00000040648002202940494FFF774FB03488F
:102FF000FFF7EAFA08B010BD001800407C0300207B
:1030000010B58AB0002468461C21079408940994DE
:10301000FDF74CF912484FF08041C0E9001484607C
:10302000C46004618461FFF7EAFB0D4807A90794B7
:103030000994FFF7B3F960206946CDE90004084818
:10304000002202940494FFF746FB054804226946D7
:10305000FFF741FB0248FFF7B7FA0AB010BD0000C6
:103060007C02002010B58AB0002468461C21079419
:1030700008940994FDF71AF910480F49C0E90014A3
:103080008460C46004618461FFF7B9FB0B4807A941
:1030900007940994FFF782F960206946CDE900049E
:1030A0000648082202940494FFF715FB0348FFF733
:1030B0008BFA0AB010BD000000040040BC020020E2
:1030C00010B58AB0002468461C210794089409941E
:1030D000FDF7ECF810480F49C0E900148460C460A3
:1030E00004618461FFF78BFB0B4807A907940994DF
:1030F000FFF754F960206946CDE900040648042230
:1031000002940494FFF7E7FA0348FFF75DFA0AB068
:1031100010BD0000000C0040FC02002010B588B07B
:103120001C216846FDF7C2F8104800240E49C0E98A
:1031300000148460C46004618461FFF760FB602058
:103140006946CDE900040948002202940494FFF77F
:10315000C2FA064804226946FFF7BDFA0348FFF7A2
:1031600033FA08B010BD0000004001403C030020CD
:103170000948084901604FF4E131416000210C2207
:103180008160C160C0E904128161C1610162416274
:10319000FFF7A5BB00500040BC03002009480849C8
:1031A00001600949416000210C228160C160C0E9D1
:1031B00004128161C16101624162FFF790BB0000AE
:1031C000001401402C040020001BB7000949012213
:1031D000094810B500F080FF0849074801F098F948
:1031E0000749054800F09AFDBDE81040024801F08B
:1031F000E5B90000000000208436002034010020E2
:1032000034000020FEE770470907090E002806DA9F
:1032100000F00F0000F1E02080F8141D704700F16D
:10322000E02080F8001470470148FDF7C3BD00009E
:10323000203900202DE9F84F0E46D0F80080814655
:10324000C1EBC60100EB8104D4E91401451A606C9E
:103250003C34A84200D20546E81C08EB461A870811
:1032600015E0451AA068A84200D20546E81CABB29A
:10327000870899F8100000904046E168F2B201F02A
:1032800077FFE0682844E060A0692844A061DAF88C
:10329000180980B2B84205D9D4E90501814201D2AA
:1032A0000028DED135B90120D8F83418B040814368
:1032B000C8F834180020BDE8F88F70470E4941F671
:1032C000583210B50968B1FBF2F102681468890040
:1032D000002324F480341460491E07D2D0F88010F3
:1032E00041F04001C0F88010032303E00268126837
:1032F000D203F1D4184610BD540000207047704727
:1033000070B5B2B0302120A8FCF7D0FF14212CA852
:10331000FCF7CCFF80216846FCF7C8FFFEF77CF97C
:103320002348016841F080510160006800F080503E
:1033300031902048016841F4404101600068012655
:10334000022400F4404031903004CDE92060800137
:10335000CDE92640192028904FF4D870CDE92904F2
:1033600009202B9020A8FEF7FFFCFEF71FF92CA9DF
:103370000F20002581E831004FF4A0502F90E0028B
:10338000309007212CA8FEF7DBFB04A90A48009027
:10339000C020089681E83100E0010E95139080006E
:1033A0001D9514906846FEF7A3F932B070BD000079
:1033B0004038024000700040000C300010480168A6
:1033C00041F4700101600F48016841F001010160A2
:1033D0000C4A00210832116002680B4B1A4002604F
:1033E000031D0A4A1A60026822F48022026005481E
:1033F0000C300160580602498039086070470000AF
:1034000088ED00E000380240FFFFF6FE1030002497
:103410000148FFF718B80000204F0020F0B50268FF
:103420004FF0804E244D254E254FA842DFF894C022
:10343000254B09D0704507D0B04205D0B84203D023
:10344000604501D0984203D122F070044A682243BB
:10345000A8421BD0704519D0B04217D0B84215D041
:10346000604513D0984211D0184CA0420ED0184C91
:10347000A0420BD0174CA04208D0174CA04205D058
:10348000164CA04202D0164CA04203D122F4407444
:10349000CA6822434C6922F08002224302608A6893
:1034A000C2620A688262A84201D0984201D10969C9
:1034B000016301214161F0BD0000014000040040B2
:1034C00000080040000C00400004014000400140A2
:1034D000004401400048014000180040001C00402A
:1034E0000020004030B5026A22F001020262056A43
:1034F0004268836925F002050F4C23400C6823F0D5
:1035000003031C438B682B430C4DA84202D00C4D87
:10351000A8420BD123F00805CB6822F440722B435C
:103520004D6923F0040315438A692A43426084618C
:1035300049684163036230BD8FFFFEFF0000014018
:103540000004014030B5026A22F010020262046AEF
:1035500042688369134D2B400D6823F4407343EA9E
:10356000052524F020038C6843EA04130E4CA04286
:1035700002D00E4CA0420ED1CC6823F0800322F47E
:10358000406243EA04134C6923F0400342EA840298
:103590008C6942EA84024260856149688163036202
:1035A00030BD0000FF8FFFFE00000140000401401D
:1035B00030B5026A22F480720262056A4268C36909
:1035C000124C23400C6823F003031C4325F40073C2
:1035D0008D6843EA05230E4DA84202D00D4DA84246
:1035E0000ED1CD6823F4006322F4405243EA052350
:1035F0004D6923F4806342EA05128D6942EA05129F
:103600004260C4614968C163036230BD8FFFFEFF41
:10361000000001400004014030B5026A22F48052EB
:103620000262046A4268C36924F400540D4D2B40C1
:103630000D6823F4407343EA05238D6844EA05349A
:10364000094DA84202D0094DA84204D14D6922F487
:10365000804242EA85124260C361496801640462A3
:1036600030BD0000FF8FFFFE00000140000401405C
:1036700030B5026A22F480320262056A4268436D04
:103680000C4C23400C681C4325F400330D8943EA9D
:103690000543094DA84202D0084DA84204D14D6906
:1036A00022F4803242EA052242604465496881651D
:1036B000036230BD8FFFFEFF0000014000040140A7
:1036C00030B5026A22F480120262056A4268436DD4
:1036D0000D4C23400C6843EA042425F400130D89A3
:1036E00043EA0553094DA84202D0094DA84204D12E
:1036F0004D6922F4802242EA85224260446549688D
:10370000C165036230BD0000FF8FFFFE0000014075
:103710000004014090F82410C90706D001684A68E7
:10372000836A22F400321A434A6090F82410890711
:1037300006D501684A68C36A22F480321A434A6097
:1037400090F82410490706D501684A68036B22F4F3
:1037500080221A434A6090F82410090706D50168B0
:103760004A68436B22F400421A434A6090F82410DE
:10377000C90606D501688A68836B22F480521A4311
:103780008A6090F82410890606D501688A68C36BA0
:1037900022F400521A438A6090F82410490611D589
:1037A00001684A68036C22F480121A434A60016C73
:1037B000B1F5801F06D101684A68436C22F4C0024B
:1037C0001A434A6090F82410090606D501684A6831
:1037D000806C22F4002202434A60704738B500250D
:1037E0000446C566FDF7D0F8034620680068000768
:1037F0000BD56FF07E400090002220464FF4001160
:1038000000F028F908B1032038BD202084F86900B1
:1038100084F86A00002084F8685038BD2DE9F04132
:1038200004468368006910210022E6690343606949
:10383000154630430343206806687A4F3E401E43D6
:10384000066020684368E66823F4405333434360CE
:10385000A369206A03432068866826F430661E4305
:103860008660714FCE022068704BB8420AD11B6847
:1038700013F0030352D0012B7AD0022B76D0032B06
:1038800079D177E06A4FB8420AD11B6813F00C0374
:103890006AD0042B6CD0082B68D00C2B6BD169E05C
:1038A000644FB8420AD11B6813F030035CD0102B70
:1038B0005ED0202B5AD0302B5DD15BE05E4FB842FA
:1038C0000AD11B6813F0C0034ED0402B50D0802B80
:1038D0004CD0C02B4FD14DE0584FB8420DD11B6892
:1038E00013F4407340D0B3F5807F41D0B3F5007F2F
:1038F0003CD0B3F5407F3ED13CE0514FB8420FD1B0
:103900001B6813F4406309D0B3F5806F30D0B3F572
:10391000006F2BD0B3F5406F2DD12BE001212AE0B1
:10392000484FB8420DD11B6813F440531CD0B3F577
:10393000805F1DD0B3F5005F18D0B3F5405F1AD19A
:1039400018E0414FB84216D11B6813F440430BD026
:10395000B3F5804F0CD0B34208D0B3F5404F0AD135
:1039600008E005E002E0FFE7002104E0022102E0B8
:10397000042100E00821E369B34226D109291DD2C0
:10398000DFE801F00508121C151C1C1C1800FEF7CE
:1039900099F901E0FEF7A6F94100606801EB5001DA
:1039A000B1FBF0F082B20AE028496068F6E7FEF762
:1039B000A9F9F1E760684FF48031EFE7012522F0C3
:1039C0000F00C2F3420108431CE0092925D2DFE8B9
:1039D00001F005080B24102424241C00FEF772F9C2
:1039E00009E0FEF77FF906E06168194A02EB51022F
:1039F0000EE0FEF787F90146606801EB5001B1FB6C
:103A0000F0F080B22168C86008E0616806EB5102FE
:103A1000B2FBF1F189B2C16000E001252846BDE8A2
:103A2000F0810000F369FFEF001001409038024080
:103A30000044004000480040004C0040005000405E
:103A40000014014000780040007C00400048E8017C
:103A50000024F4002DE9F0411E461746884604462E
:103A6000069D1CE0681C1AD025B1FCF78DFF801B59
:103A7000A84214D32068016821F4D0710160206845
:103A8000816821F001018160202084F8690084F8B8
:103A90006A00002084F868000320BDE8F0812068F7
:103AA000C16938EA010004D00020B842DAD0002011
:103AB000F3E70120F9E7000030B5214C2068C36925
:103AC000990615D5416A1F48C568826A5155C16873
:103AD000491CC1608268914201D3891AC1600021EA
:103AE00000EB8102491C95696D1C95610229F7DB89
:103AF0002068016809061DD519061BD512498A6977
:103B000082B10846826A0169535C491C016182687E
:103B1000914201D3891A01618169491E81610B4873
:103B2000036007E00A6822F001020A60016821F0E0
:103B300080010160054908200839086030BD000097
:103B40002C040020D03400209C3400202814014094
:103B50002DE9F041D0F89852D0F89022DAB101EB7B
:103B60008103002600EB8303DC694CB1C1EBC10784
:103B700005EB87056D6CB4FBF5F705FB174424B125
:103B8000C2F814620020BDE8F081DE6100231A460D
:103B900000F09AFCF6E70220F5E770B5D0F8904205
:103BA000054600F07CFBC4F80C02D5F8900248B141
:103BB000D5F89412D4F80402CA6804F5037190474A
:103BC000002070BD022070BD70B500260446812122
:103BD00000F0A7FA002520460121E56200F0A1FAD5
:103BE00082212046C4F8585100F09BFA2564D4F88D
:103BF000900248B1D4F8940204F5247440688047D8
:103C0000206801F0E7FA2560304670BD10B5D0E9B4
:103C1000A44159B194F80002FF2807D08B682146CF
:103C200094F801229847FF2084F80002002010BD7C
:103C30000A210180004870475C0000204321018078
:103C400000487047AC0000204321018000487047C5
:103C5000680000204321018000487047F0000020E8
:103C60002DE9F04100260446007C01254FF4007741
:103C700090B3402320460222812100F05FFB4023C5
:103C8000E56202222046012100F058FB082320466D
:103C90000322C4F85851822100F050FB4FF4077002
:103CA000256401F0AFFBC4F89002F8B10546D4F8E2
:103CB0009402006880470021C5F81412C5F8181254
:103CC000207CD5F8042298B140232046012100F041
:103CD00048FB3046BDE8F081FFE702223B468121E8
:103CE000204600F02BFB3B46E562CAE70126F0E7E1
:103CF0003B46EAE710B5D0F8901269B1027C002A81
:103D0000D1F8042205D04023012100F02AFB002035
:103D100010BD4FF40073F7E7022010BD02460220E9
:103D2000002902D00020C2F894127047D0F8900207
:103D3000C0F8041200207047D0F89002C0F810229A
:103D4000C0F80812002070472DE9FC41D0F89072AD
:103D5000054600200C468DF800000646ADF804002C
:103D6000087810F0600121D020293BD1E288AAB167
:103D70000006607807D5D5F894128B6839469847C5
:103D8000E288394626E087F800023946A07987F8AC
:103D900001022846E28800F06AF828E0D5F894127B
:103DA000002260788B682146984720E0607820B137
:103DB0000A2809D00B2815D110E095F874020328C1
:103DC00010D1022201A905E095F87402032809D157
:103DD00001226946284600F064F808E095F874026C
:103DE000032804D02146284600F036F80226304643
:103DF000BDE8FC8110B5D0F89012A1B1D1F8142221
:103E00000AB1012010BD0122C1F81422D1F81022FC
:103E10000263B1F8102293B2D1F80822812100F098
:103E200053FB002010BD022010BD10B5D0F88C222D
:103E300052689047002010BD13460A46002110B575
:103E400000F08FFA002010BD13460A46002110B57D
:103E500000F03AFB002010BD10B58021044600F0B0
:103E60000AFB2046BDE81040002100F004BB10B55D
:103E7000C0F848210323C0F86C321346C0F84C2127
:103E80000A46002100F06DFA002010BD0521002334
:103E900010B51A46C0F86C12194600F062FA0020FC
:103EA00010BD10B5C2610223C0F86C321346026225
:103EB0000A46002100F008FB002010BD0421002369
:103EC00010B51A46C0F86C12194600F0FDFA002031
:103ED00010BDF8B5044648880D46010A08294BD2A2
:103EE000DFE801F04A0409174A4A4048D4F888122A
:103EF000207C0A6832E0207C02260028D4F88C025C
:103F000005D0C16A684688470146467041E0816A2B
:103F1000F8E7C0B206282FD2DFE800F003080D1240
:103F2000171CD4F88812207C4A6817E0D4F888124D
:103F3000207C8A6812E0D4F88812207CCA680DE0E0
:103F4000D4F88812207C0A6908E0D4F88812207C12
:103F50004A6903E0D4F88812207C8A696946904750
:103F6000014616E0207C38B9D4F88C02416B6846D3
:103F70008847F5E7207C20B129462046FFF76CFFF3
:103F8000F8BDD4F88C02016B6846884701460720CB
:103F90004870BDF8000048B1EA8852B1824200D9A9
:103FA00002462046ADF80020FFF77BFFE888002896
:103FB000E6D12046FFF782FFF8BD002370B5002848
:103FC0001ED00025044602E06D1C641CEDB226786C
:103FD000002EF9D1022404EB450414801278002449
:103FE000CA545B1C0322CA545B1C06E0CA545B1C07
:103FF000DAB28C54521C401CD3B20278002AF5D19C
:1040000070BD000004A00A46024910B5FFF7D5FFB5
:10401000004810BD203D002043444320436F6E669E
:1040200069670000122008800048704720000020C7
:1040300004A00A46024910B5FFF7BFFF004810BDB3
:10404000203D002043444320496E746572666163DD
:104050006500000004200880004870471C00002014
:1040600004A00A46024910B5FFF7A7FF004810BD9B
:10407000203D002053544D6963726F656C65637415
:10408000726F6E696373000004A00A46024910B59E
:10409000FFF793FF004810BD203D002053544D33DF
:1040A00032205669727475616C20436F6D506F7267
:1040B0007400000004A00A46024910B5FFF77DFF16
:1040C000004810BD203D00203030303030303030DE
:1040D000303031410000000010B580B1D0F88C3292
:1040E00013B10023C0F88C3209B1C0F88812012145
:1040F00080F87412027000F0D7F8002010BD022082
:1041000010BD10B5D0F898020024FCF76DFD30B159
:10411000012801D0022801D0022400E00124204619
:1041200010BD10B5D0F898020024FCF737FD30B16F
:10413000012801D0022801D0022400E001242046F9
:1041400010BD2DE9F0411746044651B1D4F88C0258
:1041500042691AB194F87402032851D00220BDE8D4
:10416000F081D4F86C32002504F11400022B03D046
:10417000042B3AD0C3B33CE0D0E903639E4207D995
:10418000F11AC1608AB239462046FFF75DFE12E09F
:104190008068B0FBF3F103FB110199B9984211D388
:1041A000D4F8701288420DD2002220461146FFF743
:1041B0004BFEC4F8705200231A461946204600F000
:1041C000D0F816E0D4F88C02C16829B194F87402D2
:1041D000032801D1204688478021204600F04BF972
:1041E0002046FFF753FE04E0FFE78021204600F061
:1041F00042F994F87802012804D184F8785201E059
:10420000204690470020AAE770B51546044649B1FC
:10421000D4F88C0282691AB194F8740203282DD064
:10422000022070BDD4F86C1204F5A070032902D0EE
:1042300005291ED024E0D0E903318B420BD95B1A4B
:10424000C3600846834200D3034629469AB22046FB
:10425000FFF7F2FD14E0D4F88C02016929B194F85B
:104260007402032801D1204688472046FFF726FE26
:1042700006E00021204600F0FEF801E020469047CD
:10428000002070BD0020704710B5012180F8741225
:10429000D0F88C22017952689047002010BDD0F8E8
:1042A0009802FCF7CFBC000010B5017801292AD193
:1042B00016490322C1F8FC03C0F89812144808609C
:1042C000092048600020C8600861C1E90502C86192
:1042D00008624862C862086348630846FDF75EF8F2
:1042E00008B1FCF71EF909484FF40071FCF715FC02
:1042F000064880220021FCF714FC044801214FF4F9
:10430000BA72FCF70EFC002010BD0000203900201E
:10431000000004400A06D0F8980201F07F01C1EBCA
:10432000C10100EB810002D590F83E00704790F883
:10433000FE017047002070470020704770B51D4691
:10434000D0F89802002413462A46FCF785FC30B1C9
:10435000012801D0022801D0022400E001242046D7
:1043600070BD10B5D0F898020024FCF7A5FC30B160
:10437000012801D0022801D0022400E001242046B7
:1043800010BD70B50022044640231146FFF7D6FF4A
:104390004026C4F850610125334600222046802182
:1043A000C4F84451FFF7CAFF66620020A56184F893
:1043B0007452C4F86C026060C4F87C02D4F89002B5
:1043C00028B1D4F88C020021426820469047002092
:1043D00070BD90F8751280F874120020704710B507
:1043E00090F87412032904D1D0F88C12C96901B174
:1043F0008847002010BD01740020704710B5D0F828
:1044000098020024FDF78AF830B1012801D0022873
:1044100001D0022400E00124204610BD70B50446FE
:1044200000F52070054600F05FF80120C4F86C022A
:10443000B4F88602C4F8700294F8802212F01F00CB
:104440000AD001280DD0022810D002F080012046A9
:1044500000F011F8002070BD2946204600F0B3F8A6
:10446000F8E72946204600F0DFF9F3E72946204621
:1044700000F032F9EEE710B5D0F898020024FCF70E
:104480003FFC30B1012801D0022801D0022400E015
:104490000124204610BD10B5D0F898020024FDF785
:1044A00058F830B1012801D0022801D0022400E0E0
:1044B0000124204610BD90F8741280F87512042172
:1044C00080F874120020704710B5D0F898020024CC
:1044D000FCF750FC30B1012801D0022801D00224A1
:1044E00000E00124204610BD0A7802704A7842702C
:1044F000CB788A7802EB032242804B790A7902EB6F
:10450000032282808A79C97902EB0121C180704738
:104510000246002011B1C2F88C1270470220704789
:1045200010B5D0F88C2202241AB11268904700B955
:104530000024204610BD000070B51F4D0E4689783E
:1045400004460129297031D894F8740202280BD04E
:1045500003280FD031462046FFF77EFC29782046FD
:10456000BDE87040FFF761BCD9B16160032084F8F9
:10457000740209E071B16068884212D0C1B220466D
:10458000FFF753FC297861602046FFF7C9FF022836
:104590000CD006E0022084F8740220466160FFF728
:1045A00044FC2046BDE87040FFF788BC31462046F9
:1045B000BDE87040FFF750BC5800002010B5FFF771
:1045C0006AFF002010BD2DE9F0410A78002712F0A3
:1045D000600208D0202A01D0402A70D1D0F88C2265
:1045E000926890476DE04A78002301260A2A66D235
:1045F000DFE802F0405D6557650805652C29FFF787
:1046000068FC5EE004468888D8B9C888C8B948887C
:10461000802816D200F07F0594F87402032810D089
:104620002946204684F87652FFF7E8FE2046FFF739
:1046300045FC1DB1022084F8740242E084F87462E3
:104640003FE020463BE0FFF777FF3AE0CA88012AC7
:1046500035D190F87422012A04D0022A02D0032A0C
:104660002DD104E00122836000F1080116E001224F
:10467000011D13E090F87422012A03D0022A01D010
:10468000032A1CD1CA88022A19D1C660D0F87C122C
:1046900009B10321C160022200F10C01FFF701FC06
:1046A0000FE0498801290CD1C0F87C6211E090F834
:1046B0007422012A08D0022A06D0032A04D0FFF768
:1046C000CBFB3846BDE8F08149880129F9D1C0F813
:1046D0007C32FFF7F3FBF4E70A462DE9F04113784B
:1046E00000270979044613F060000AD0202801D081
:1046F000402850D1D4F88C02114683682046984750
:104700008FE0C3F34110012806D05078D0B30128C0
:104710002AD003283FD107E0D4F88C0211468368E1
:104720002046BDE8F041184794F87402022802D0F0
:10473000032872D10AE071B380296ED02046FFF7BA
:104740009AFE80212046FFF796FE6AE0508838B92D
:1047500031B1802904D0D08810B92046FFF78BFEF4
:104760002046FFF7ABFB5CE094F874020228E2D02D
:10477000032852D1508898BB4806F1D02046FFF755
:10478000C0FCEDE7FFE794F874020026022803D08E
:10479000032842D112E040E009B180293DD108064A
:1047A00001F07F0000EB800004EB800101D51431A3
:1047B00001E001F5A07102220E602AE0080601F076
:1047C0000F0000EB800004EB80000AD5806920B365
:1047D00001F07F0000EB800004EB800514350BE056
:1047E0001FE0D0F84401C0B101F07F0000EB800071
:1047F00004EB800505F5A07541B1802906D020465F
:10480000FFF788FD10B10120286000E02E60022231
:1048100029462046FFF745FB03E011462046FFF7F7
:104820001BFB3846BDE8F08170B5054608780C469C
:1048300010F0600203D0202A01D0402A16D195F84A
:104840007422012A03D0022A01D0032A0ED1207932
:1048500001280BD8D5F88C02826828469047E18859
:10486000014306D12846FFF729FB02E02846FFF75F
:10487000F3FA002070BD000070B50A7801234E786D
:1048800002F00F051B4CAB40D0F81C58012E17D07E
:1048900045EA0343C0F81C3800EB4210D0F8002B67
:1048A00012040BD4D0F8002B0B89C978C3F30A0388
:1048B0001A4344EA81410A43C0F8002B002070BD2E
:1048C0009BB21D43C0F81C5800EB4210D0F80039D1
:1048D0001B04F3D4D0F800390D89C978C5F30A0553
:1048E00089042B4341EA82510B432343C0F800392A
:1048F000E4E7000000800010D0F800196FF30A010F
:10490000C0F80019D0F80818C1F34101022905D1F7
:10491000D0F8001941F00301C0F80019D0F80418CC
:1049200041F48071C0F804180020704770B5044647
:1049300034490698049E0D9D01280ED003281DD0F1
:10494000E06840F04000E060204600F061F84FF47D
:104950008030A063012E4AD051E0A06B20F480305B
:10496000A063E0680840E060E06820F44010E06088
:1049700037E0E06840F48010E06034E0A06B20F4A1
:104980008030A063E0680840E060E06820F44010F8
:10499000E060E06820F01000E060A06B40F40000F0
:1049A000A063194900200A6842F004020A60174A0D
:1049B00002E0401C904214D80B689B07F9D51248BE
:1049C0000A211838016010490C390A6840F613733F
:1049D0001A430A60016841F0010101600220FBF7FF
:1049E000DBFE012DC5D0204600F012F8B2E7A0682A
:1049F00040F00600A060A06840F02000A060002009
:104A000070BD0000BFFFBDFF187C0140400D0300DA
:104A10000B4A0021491C91420AD80369002BF9DA9C
:104A20000369002143F001030361491C914201D94C
:104A3000032070470369DB07F7D1002070470000AF
:104A4000400D030070B50B7801244E7803F00F057C
:104A500004FA05F2D0F83C58012E17D025EA02429C
:104A6000C0F83C28D0F81C28097801F00F018C40D0
:104A700022EA0441C0F81C1800EB4310D0F8001BD8
:104A80000E4A1140C0F8001B002070BD92B2954341
:104A9000C0F83C58D0F81C28097801F00F018C4070
:104AA000A1B28A43C0F81C2800EB4310D0F80019CB
:104AB000034A1140C0F80019E6E700000078F3EF60
:104AC000007833EC10B5D0F8041821F00201C0F8DA
:104AD00004180320FBF760FE002010BD10B5D0F8CD
:104AE000041841F00201C0F804180320FBF754FE3B
:104AF000002010BD2DE9F0470D4604460020DDE9F9
:104B00000A1ADDF83C900646DDF8208004EB8002AE
:104B1000C2F80461401C0F28F8D3A06B40F40012C7
:104B2000A263B9F1000F0BD1A06B20F40012A263B5
:104B3000206840F040022260206840F0800222603D
:104B40002046C4F8006ED4F80028C4F800280129D3
:104B50001ED003291CD0D0F8001841F0030101E059
:104B600041F00101C0F80018102100F077FA20464A
:104B700000F064FAC4F81068C4F81468C4F81C683B
:104B800000204FF000624FF67F374FF0904319E05E
:104B9000D0F80018002BE5D0E2E704EB4011D1F883
:104BA00000C9BCF1000F06DA10B1C1F8003904E009
:104BB000C4F8002901E0C1F80069C1F81069C1F822
:104BC0000879401C8542E8D8002014E004EB40112D
:104BD000D1F800CBBCF1000F06DA10B1C1F8003BF0
:104BE00004E0C4F8002B01E0C1F8006BC1F8106BC1
:104BF000C1F8087B401C8542E8D8D4F8100820F49E
:104C00008071C4F81018B8F1010F08D11449C4F824
:104C10003018D4F8300813490843C4F83008A661A6
:104C20006FF080406061B8F1000F03D1A06940F0DF
:104C30001000A061A0690C490843A061BAF1000FFF
:104C400003D0A06940F00800A061B9F1010F03D1C1
:104C5000A06906490843A0610020BDE8F087000074
:104C6000000180000300010000383C800400004087
:104C7000816821F0010181600020704770B50D78D6
:104C80004E78EBB23D4C012E00EB43131FD0D3F80E
:104C9000100B6FF31200C3F8100BD3F8100B204069
:104CA000C3F8100B486908B188684861D3F8100B45
:104CB00040F40020C3F8100BD3F8100B8C68C4F339
:104CC00012042043C3F8100B012A4CD04EE04E6969
:104CD000002ED3F8106932D06FF31206C3F81069B2
:104CE000D3F810692640C3F810694E698C68A64253
:104CF00000D94C61D3F8104944F40024C3F810499A
:104D0000D3F810494E69C6F312063443C3F810496C
:104D1000012A22D04A694AB1D0F83428097801F032
:104D20000F03012199400A43C0F8342800EB4510D5
:104D3000D0F8001941F00441C0F800191CE02640E9
:104D4000C3F81069D3F8104944F40024C3F810499B
:104D5000D3F810496FF31204D8E700EB4512096944
:104D6000C2F81419E2E7C868C3F8140BD3F8000BB3
:104D700040F00440C3F8000B002070BDFFFF07E0C7
:104D80000023C0F8103BD0F8103B43F40023C0F8D8
:104D9000103BD0F8103B43F01803C0F8103BD0F89C
:104DA000103B43F0C043C0F8103B012905D1C0F8C7
:104DB000142B4FF08021C0F8001B002070470B78A7
:104DC0004A78012A00EB43100BD0D0F8002B22F4D4
:104DD0000012C0F8002BC978032914D0022912D080
:104DE00017E0D0F8002922F40012C0F80029C97891
:104DF000032901D002290CD1D0F8001941F08051CB
:104E0000C0F8001905E0D0F8001B41F08051C0F84F
:104E1000001B002070470A784B78D1B2012B00EBC1
:104E2000411012D0D0F8001B002906DB2AB1D0F8BF
:104E3000001B21F08041C0F8001BD0F8001B41F49A
:104E40000011C0F8001B00207047D0F8001900299D
:104E500006DB2AB1D0F8001921F08041C0F8001912
:104E6000D0F8001941F40011C0F80019EBE7000078
:104E7000F8B50C786FF060474E78E3B26B4D012EB9
:104E800000EB431326D0D3F8104B6FF31204C3F892
:104E9000104BD3F8104B2C40C3F8104B4D69002D2C
:104EA00074D08C6825446D1EB5FBF4F4D3F8105B08
:104EB000A4B207EAC4463543C3F8105BD3F8105BCD
:104EC0008E686643C6F312042543C3F8105B012ABB
:104ED0007DD092E04E69002ED3F8106921D06FF397
:104EE0001206C3F81069D3F810692E40C3F8106990
:104EF0004E698D682E44761EB6FBF5F5D3F8106921
:104F000007EAC5453543C3F81059D3F810594E691F
:104F1000C6F312063543C3F81059CD78012D0ED0D3
:104F200019E02E40C3F81069D3F8105945F4002554
:104F3000C3F81059D3F810596FF3120509E0D3F8EC
:104F4000105925F0C045C3F81059D3F8105945F051
:104F50000055C3F81059012A12D0CB78012B16D076
:104F60004B691BB3D0F834380D7805F00F060125D6
:104F7000B5402B43C0F83438CB78012B07D015E06F
:104F800000EB44130D69C3F81459F5E723E0D0F89A
:104F90000838DB0500EB4413D3F8005902D445F080
:104FA000005501E045F08055C3F8005900EB44136B
:104FB000D3F8004944F00444C3F80049CB78012BEE
:104FC00031D100928A8A93B20A78C96800E011E070
:104FD00000F0CEF827E0D3F8104B8D68C5F312052A
:104FE0002C43C3F8104BD3F8104B44F40024C3F8FF
:104FF000104B6CE7CA68C3F8142BC97801290CD18F
:10500000D0F80808C005D3F8000B02D440F00050D7
:1050100001E040F08050C3F8000BD3F8000B40F0E3
:105020000440C3F8000B0020F8BD0000FFFF07E0BC
:10503000816841F001018160002070470021102249
:105040000261054A491C914201D903207047036956
:10505000DB06F7D400207047400D03000022202318
:1050600043EA811101610549521C8A4201D903209A
:10507000704703699B06F7D400207047400D03007A
:10508000D0F8080810F0060006D0022805D006283F
:1050900003D0042803D0002070470320704702206B
:1050A0007047406900F001007047D0F81818D0F838
:1050B0001C08084080B27047D0F81818D0F81C08B7
:1050C0000840000C704710B5D0F81038D0F83428DC
:1050D00001F00F0400EB4110E24002F00102D0F8B1
:1050E000080943EAC212104010BD00EB4111D1F88B
:1050F000081BD0F8140808407047416980690840CF
:105100007047D21C034603F58053084692080021DD
:1051100010B502E01C68491C10C09142FAD310BDC2
:1051200010B5C26822F0C042C260012902D029B184
:10513000012010BDC16841F0005102E0C16841F09A
:105140008041C1603220FBF727FB002010BDD0F862
:10515000002822F4FE62C0F80028D0F800284FF49E
:10516000FE6303EA01110A43C0F8002800207047DB
:1051700010B5029C64B9DB1C00EB02309C080023D4
:1051800000F5805002E004C902605B1CA342FAD320
:10519000002010BDFEE702E008C8121F08C1002A67
:1051A000FAD170477047002001E001C1121F002AA8
:1051B000FBD17047002381621946C0E9022300EB4E
:1051C0008102491C0229136193611362F7DB0360BA
:1051D0004360704710B5002821D0114B0022001FFA
:1051E000196803E0814203D80A4649680029F9D1C9
:1051F00052B11368841A9C4204D1006818441060AC
:10520000104602E0506000E0186039B102680B1AE5
:10521000934203D10B681A4402604968416010BD93
:105220006C01002008B5BFF34F8FBFF36F8F6C493F
:10523000002008606B4C216841F400312160BFF30D
:105240004F8FBFF36F8F674970310860BFF34F8F87
:10525000081F006843F6FF75614E1036C0F34E31EB
:10526000C0F3C90305EA4112184642EA8077376065
:10527000401EFAD2491EF5D2BFF34F8F206840F48A
:1052800080302060BFF34F8FBFF36F8FFBF78AFB37
:10529000FEF736F8FDF704FC5348016841F480013D
:1052A000016000680022114600F48000009039205F
:1052B000FBF7ECFB3920FBF7DDFB00223C2011461D
:1052C000FBF7E4FB3C20FBF7D5FB00224520114611
:1052D000FBF7DCFB4520FBF7CDFB00224620114607
:1052E000FBF7D4FB4620FBF7C5FBFDF715FEFDF7EA
:1052F00087FEFDF7B7FEFDF7E3FEFDF70FFFFDF7B5
:105300005BFEFDF74BFFFDF761FFFDF731FF37490E
:105310004FF48054224601F50050FFF74BFF34490B
:1053200022463448FFF746FF334801680906FCD59A
:10533000324931480C3008602F4D1C3D2A6822F05C
:1053400001022A602C4A143A136843F08003136068
:105350002A6842F001022A602A6842F020022A608C
:105360000860286820F001002860286840F00100EB
:105370002860204EA6F13407B469002C24DD316981
:10538000B068401AA04200DA0446194A002002F52B
:10539000005306E002EB000C11F80CC003F800C04B
:1053A000401CA042F6DBA1B21548FBF729F858B91A
:1053B00010480169214401618268914201D3891A30
:1053C00001618169091B8161B8690028D4DD286801
:1053D00040F080002860386840F001003860CBE77A
:1053E00050EF00E014ED00E0303802409C14002043
:1053F0009C040020D03400201C140140C0640240F2
:105400009C240020F0B50B30154D20F0070100243E
:10541000144A0FE003688B420BD38B4205D95E1A06
:1054200043184768C3E9006700E04368136002C09F
:1054300004E0021D10680028ECD12046002802D1AB
:10544000286808B10020F0BD064A07481060074AE6
:10545000121A22F00702C0E9002401202860D7E7D1
:10546000700100206C010020644F00206053002078
:1054700000061016000610160000000000000000D4
:1054800001020304060708090000000001020304EA
:10549000B05400080000002074010000240300083C
:1054A0006C55000874010020EC550000A65100085E
:1054B0001325401B0855041A61041A89041AB504FF
:1054C0001A05041A31041704030904120114020214
:1054D000021640830440572602010203011385038C
:1054E0001B0881041A7D041AA9044119171182109E
:1054F0005324F4130A0632022A401C1C0902433FBB
:10550000111DC03209042D1A020B130524161001B7
:1055100005240110090104240202052406170107CD
:10552000058203081C10090475320A1D07050102D3
:10553000432C070581070938442A40072A810711AF
:105540002B0907440A3B044413613C1408C93B4C33
:1055500008493DFC1A0D101A51101A9B04C11A4932
:0C556000181A3D041A55041A3104810089
:04000005080001E10D
:00000001FF
